:100000000C9494010C94B1010C94B1010C94B101C5
:100010000C94B1010C94B1010C94B1010C941E1319
:100020000C94B1010C94FD110C94F1120C949712E4
:100030000C94C4120C94D0110C943D120C946A12BE
:100040000C947D110C94B1010C942A140C94B10100
:100050000C94F2130C94FF060C94B1010C94B101B2
:100060000C94B1010C94B10125642E004445565FF7
:100070004E4F545F464F554E44002D002D003032F8
:1000800020745F726561645F736C6F7420203A2026
:1000900025640A00303220745F726561645F7361A9
:1000A0006D7020203A2025640A00303220745F777A
:1000B000726974655F736C6F74203A2025640A005E
:1000C000303220745F77726974655F6C6F772020BF
:1000D0003A2025640A00303220745F7265736574BB
:1000E0005F72782020203A2025640A003032207484
:1000F0005F72657365745F74782020203A202564F0
:100100000A00303120745F636F6E7620202020203B
:1001100020203A2025640A004444313878323020C7
:1001200054696D696E670A002E00256400636D6472
:100130003E00636D646C696E653A2000636F6D6D9F
:10014000616E64206E6F7420666F756E64000D0AB8
:10015000000D0A0020307825780030782578257841
:100160002030782578000A000900090009000900FC
:10017000090009003C2F743E0A0020256400202558
:1001800064002564003C743E00417672333238705E
:10019000436F6E736F6C6520333238502044415189
:1001A000205631332E30352E31302C2042792041EB
:1001B0006E64727A656A20426F726F776965630058
:1001C00074657374202020202020202020202020EF
:1001D000203A20746573742066756E6374696F6E5F
:1001E0000A00706F6B65205B7265675D205B7661EE
:1001F0006C5D203A2073657473207265676973744F
:1002000065722076616C756520746F205B76616C19
:100210005D200A007065656B205B7265675D20205C
:1002200020202020203A2072657475726E7320643D
:1002300065632C2068657820616E642062696E2099
:1002400076616C7565206F66207265676973746589
:10025000720A007465737420202020202020202042
:10026000202020203A20746573742066756E6374B4
:10027000696F6E0A004920202020202020202020A5
:100280002020202020203A207072696E7473206430
:10029000657669636520494420616E6420766572E5
:1002A00073696F6E20696E666F0A004820202020F7
:1002B0002020202020202020202020203A20707282
:1002C000696E742068656C700A00436F6D6D616EB5
:1002D00064733A0A003031323334353637383941B5
:1002E0004243444546000000010008004000000170
:1002F0000004000001000800200040008000000110
:1003000000041B5B25643B256448001B5B3F3235C2
:100310006C001B5B3F323568001B5B25646D001B66
:100320005B324A001B63000011241FBECFEFD8E0F0
:10033000DEBFCDBF11E0A0E0B1E0E6E4FDE202C027
:1003400005900D92A832B107D9F714E0A8E2B1E008
:1003500001C01D92A531B107E1F70E94A70C0C94D2
:10036000A1160C940000ECE2F3E0119283E0E53377
:10037000F807D9F71092350310923603109237031D
:10038000109238031092390310923A0310923B03F3
:1003900010923C0310924003219A299A80E090E049
:1003A0000E947516909342038093410382E090E08F
:1003B0000E947516909344038093430384E090E079
:1003C0000E947516909346038093450386E090E063
:1003D0000E946D168093470387E090E00E946D169F
:1003E0008093480388E090E00E946D168093490353
:1003F00089E090E00E946D1680934A0308958093EF
:100400004003089502C0000001970097E1F70895A6
:100410001F93CF93DF93219A35B1C1E0D0E0CE0195
:100420000090400302C0880F991F0A94E2F7282F1A
:100430002095232325B924B1282B24B98091430387
:10044000909144030E94020224B1CE010090400327
:1004500002C0880F991F0A94E2F78095822384B91D
:1004600082E090E00E94020283B10090400302C04B
:10047000CC0FDD1F0A94E2F78C2383B913B180916E
:100480004503909146030E940202812FDF91CF9194
:100490001F9108951F93CF93DF93182F95B1C1E05B
:1004A000D0E09E010090400302C0220F331F0A9447
:1004B000E2F7822F8095892385B984B1822B84B994
:1004C0008091470390E00E940202112369F094B1E9
:1004D0000090400302C0CC0FDD1F0A94E2F79E019A
:1004E0002095822F892384B98091480390E00E944F
:1004F000020224B181E090E00090400302C0880F26
:10050000991F0A94E2F78095822384B9DF91CF91F5
:100510001F910895CF93DF93299825B181E090E052
:100520000090400302C0880F991F0A94E2F7382F09
:100530003095232325B924B1282B24B984B18323F2
:1005400084B98091490390E00E940202299A83B104
:10055000C82FD0E00090400302C0D595C7950A94FB
:10056000E2F7C170D07080914A0390E00E940202CD
:100570008C2FDF91CF9108950F931F93F89410E083
:1005800008E007C00E948A028795882787951695FC
:10059000182B0150B8F77894812F1F910F9108956F
:1005A0000F931F93082FF89418E005C0802F8170D7
:1005B0000E944A0206951150C8F778941F910F9136
:1005C0000895EF92FF920F931F93CF93DF9380E0F4
:1005D00091E00E94000DCCE2D3E0E990FF2400E01E
:1005E00010E08AE064E040E020E20E947F0D83E0BA
:1005F000C533D80791F787E091E00E94000DDF91A5
:10060000CF911F910F91FF90EF900895CF92DF92BD
:10061000EF92FF920F931F93CF93DF93C5E3D3E045
:10062000DD24CC24C3948AE2E82E81E0F82E08E28F
:1006300011E0899100D000D00F92EDB7FEB731964E
:10064000ADB7BEB71196CC92F282E1828383148259
:100650000E94220E0F900F900F900F900F90BD2DC3
:10066000B73061F000D00F92EDB7FEB7C1821383AF
:1006700002830E94220E0F900F900F90D394FD2DB5
:10068000F830B9F6DF91CF911F910F91FF90EF9065
:10069000DF90CF9008951F9300D00F9211E0ADB777
:1006A000BEB711961C93119788E191E013969C9325
:1006B0008E9312970E94220E00D0EDB7FEB73196AE
:1006C000ADB7BEB711961C9382E091E0928381830F
:1006D0008091410390914203948383830E94220E70
:1006E000EDB7FEB73196ADB7BEB711961C938CEE41
:1006F00090E092838183809143039091440394839B
:1007000083830E94220EEDB7FEB73196ADB7BEB718
:1007100011961C9386ED90E092838183809145032E
:1007200090914603948383830E94220EEDB7FEB717
:100730003196ADB7BEB711961C9380EC90E09283D2
:10074000818380914703838314820E94220EEDB738
:10075000FEB73196ADB7BEB711961C938AEA90E00A
:100760009283818380914803838314820E94220EA6
:10077000EDB7FEB73196ADB7BEB711961C9384E9BD
:1007800090E09283818380914903838314820E9445
:10079000220EEDB7FEB73196ADB7BEB711961C93DA
:1007A0008EE790E09283818380914A038383148251
:1007B0000E94220E0F900F900F900F900F901F919C
:1007C0000895F8948430D9F0853038F4823079F087
:1007D000833090F4813001F507C08630B1F0863067
:1007E00088F08730C9F414C080E090E002C082E055
:1007F00090E00E94891610C084E090E0FACF86E075
:1008000090E008C087E090E005C088E090E002C07A
:1008100089E090E00E947B160E94B30178940895CD
:100820000F931F93CF93DF93F89405E313E0C82F42
:10083000D0E093E0CC0FDD1F9A95E1F7C65FDF4F64
:10084000F80161918F01CE010E947B162196F3E0A1
:100850000D331F07A9F77894DF91CF911F910F9166
:100860000895282F392FD901E5E3F3E08D91819385
:1008700083E0EE33F807D1F70895CF93DF938091AB
:100880003503882321F48CEC0E94D0020CC085E54E
:100890000E94D002C5E3D3E089910E94D00283E098
:1008A000CD33D807C9F7DF91CF9108958CEC0E9422
:1008B000D00284E40E94D002089598E028E1362F07
:1008C000382730FD02C0669503C0622766956068D0
:1008D000915011F08695F3CF862F0895AF92BF9275
:1008E000DF92EF92FF920F931F93DF93CF930F92BC
:1008F000CDB7DEB77C015B01FB0110828C01DD24EA
:100900000CC0F80181918F01F501608149830E943B
:100910005D04F5018083D3944981D41690F3F701E7
:10092000E40FF11D81E02081F5019081291380E021
:100930000F90CF91DF911F910F91FF90EF90DF907B
:10094000BF90AF900895EF92FF920F931F93DF93A4
:10095000CF930F92CDB7DEB7E82E0E943D048EEB09
:100960000E94D0020CE213E0FF2406C00E94BC02E9
:10097000F80181938F01F394FE14C0F319824E2D78
:1009800041508CE293E0BE016F5F7F4F0E946E0486
:100990000F90CF91DF911F910F91FF90EF900895ED
:1009A000DF92EF92FF920F931F93CF93DF93EC01AF
:1009B00087EE93E0998388838FE097E29B838A8315
:1009C0000E94080289E00E94A304D82E882309F41B
:1009D000CEC080913503803109F08FC030912D0356
:1009E00020E080912C0390E0822B932B99838883C5
:1009F00020912D03959587952F3FA1F599838883A5
:100A0000409132034C3068F050E021E732E0429FE1
:100A1000C001439F900D529F900D11248C549D4115
:100A200069C00196998388836091320370E041E741
:100A300052E0649F9001659F300D749F300D11242A
:100A40002C53364F3B832A83009709F090C000D087
:100A50000F9281E0ADB7BEB711968C9311978CE7DA
:100A600090E07CC099838883409132034D30B0F18F
:100A700001979983888380912C03409132038823C6
:100A800001F550E021E732E0429FC001439F900D05
:100A9000529F900D11248C549D419B838A8319820F
:100AA0001882809132038D3008F461C000D00F921B
:100AB00081E0EDB7FEB781838AE790E0938382837C
:100AC00051C050E02FE83DEF429FC001439F900D81
:100AD000529F900D1124845A9B4B0CC050E02FE87C
:100AE0003DEF429FC001439F900D529F900D1124F6
:100AF000845B924E9B838A833AC0883229F5309179
:100B00002D0320E080912C0390E0822B932B24E096
:100B1000959587952A95E1F79983888330912D03E0
:100B200020E080912C0390E0822B932B8F709070AB
:100B300041E752E0849F9001859F300D949F300DD6
:100B400011243B832A8313C000D00F9281E0ADB7FC
:100B5000BEB711968C9311978CE690E013969C93F8
:100B60008E9312970E94220E0F900F900F9000D03C
:100B700000D00F92EDB7FEB7319681E0ADB7BEB7AA
:100B800011968C9388E690E0928381838881998185
:100B9000948383830E94220E0F900F900F900F90EA
:100BA0000F90EA80FB800027F7FC0095102F8AE069
:100BB00064E040E020E30E947F0D8D2DDF91CF9116
:100BC0001F910F91FF90EF90DF9008950F931F9367
:100BD000DF93CF930F92CDB7DEB719820E94080240
:100BE0008CEC0E94D0020E94080283E30E94D00293
:100BF00005E313E00E94BC02F80181938F01F3E04A
:100C00000D331F07B9F7C8010897BE016F5F7F4F0B
:100C100047E00E946E040F90CF91DF911F910F91DA
:100C20000895EF92FF920F931F93DF93CF930F924C
:100C3000CDB7DEB7082F10E053E0000F111F5A9513
:100C4000E1F7065F1F4F45E3E42E43E0F42EC801B1
:100C50000E946D16F70181937F010F5F1F4FFDE327
:100C6000EF16F3E0FF0699F7C7010897BE016F5F23
:100C70007F4F47E00E946E040F90CF91DF911F914C
:100C80000F91FF90EF900895CF93DF93EB0127EE44
:100C900033E0398328832FE037E23B832A830E94A5
:100CA0001106882389F10E9408020E9456048FEFE2
:100CB00093ECA9E081509040A040E1F700C0000013
:100CC0000E94080289E00E94A3048823F1F0509159
:100CD0002D0340E020912C0330E0242B352B35955B
:100CE0002795398328836091320370E04FE85DEFE8
:100CF000649F9001659F300D749F300D1124205F1B
:100D0000384D3B832A8301C080E0DF91CF91089565
:100D1000EAE7F0E08081877F808380818F7780831E
:100D20000895EAE7F0E09081987F982B90830895EA
:100D3000ECE7F0E090818295880F880F807C9F73AC
:100D4000892B80830895CF93DF93CAE7D0E0888111
:100D50008068888388818F7D888386E00E949106E1
:100D600081E00E949806ECE7F0E080818F7D80832F
:100D700088818860888310924B037894DF91CF91AB
:100D80000895ECE7F0E090818F71907E892B80834D
:100D90000895EAE7F0E0808180618083808180644B
:100DA0008083089580917A008074089510924B0397
:100DB00090917C008F71907E892B80937C00809134
:100DC0007A00806180937A0080917A0080648093B9
:100DD0007A0080917A0086FDFCCF209178003091D6
:100DE0007900932F80E030E0282B392BC90108953A
:100DF0000E94D606969587959695879508951F9299
:100E00000F920FB60F9211248F938FEF80934B03A5
:100E10008F910F900FBE0F901F901895FC018FB708
:100E2000F8947183608353834283178216821582FC
:100E300014828FBF0895FC019FB7F89444815581B7
:100E400041155105C9F026813781A081B181A20FDA
:100E5000B31F8C912F5F3F4F37832683628173814D
:100E60002617370720F0261B370B37832683415080
:100E700050405583448301C080E09FBF0895FC012A
:100E8000AFB7F8942481358162177307A0F4868187
:100E90009781860F971F978386834281538184179A
:100EA000950720F0841B950B97838683261B370BB1
:100EB0003583248302C015821482AFBF0895FC01DC
:100EC000CB012FB7F89446815781840F951F62811B
:100ED00073810E94ED140190F081E02DE80FF91F5D
:100EE00080812FBF08951F93FC01162F4FB7F894F0
:100EF000A481B58122813381A217B307A0F4868132
:100F000097818A0F9B1FB9010E94ED14A081B181C6
:100F1000A80FB91F1C9384819581019695838483C2
:100F20004FBF8FEF02C04FBF80E01F910895FC01BB
:100F30004FB7F8942281338184819581281B390B26
:100F40004FBFC90108952FB7F894FC011582148290
:100F50002FBF08951092500310924C03109251032A
:100F600010924E0310924D0310924F0308951F9359
:100F7000CF93DF939C01EB0110914F038AE0189F00
:100F8000C0011124865D9E4FB9010E945816E12FC1
:100F9000F0E0EE0FFF1FEA5AFD4FD183C0831F5FC1
:100FA00010934F03DF91CF911F91089590932901E2
:100FB000809328010895CF93DF93CDE2D1E008C05C
:100FC0002196FC018491E0912801F0912901099575
:100FD000CE01FE012491222399F7DF91CF9108954C
:100FE000E0914D03F0914E03309739F0099510923E
:100FF0004E0310924D030E94DB0708951F93CF9379
:10100000DF93E0912801F09129018DE009950E947C
:10101000DB0710914C03C2E5D3E007C0E091280143
:10102000F09129018991099511501123B9F7DF91A8
:10103000CF911F910895CF93DF93882319F08130CA
:10104000F9F40BC0809152038823D1F082EA93E037
:1010500062E573E00E94581613C0C2E5D3E0CE01EA
:1010600062EA73E00E94581609900020E9F7219780
:10107000C255D340C0934C03C09351030E94FE0756
:10108000DF91CF910895CF93DF93C2E3D1E008C001
:101090002196FC018491E0912801F09129010995A4
:1010A000CE01FE012491222399F7C2E5D3E005C0C9
:1010B000E0912801F091290109958991882311F087
:1010C0008032B1F7E0912801F09129018AE3099576
:1010D000E0912801F091290180E20995CCE3D1E06B
:1010E00005C02196FC018491F9010995CE01FE010C
:1010F00044912091280130912901442391F78DE0FA
:10110000F9010995E0912801F09129018AE00995FA
:10111000DF91CF9108950F931F9380E00E941B08E9
:1011200000E001C00F5FE02FF0E0EE5AFC4F80813D
:10113000803211F08823B1F7002321F110E01CC0A8
:101140002AE0129FC0011124865D9E4F62E573E084
:10115000402F50E00E945F16009769F4E12FF0E005
:10116000EE0FFF1FEA5AFD4F8081918190934E034D
:1011700080934D0309C01F5F80914F03181700F340
:101180000E9443080E94DB071F910F9108951F934F
:10119000182F80915003823009F03FC0123461F063
:1011A000133418F41134B1F505C0133449F0143474
:1011B00089F521C081E001C082E00E941B082AC09D
:1011C0008091510390914C03E0912801F091290105
:1011D0008917F0F48F5F809351038BE10995E091BB
:1011E0002801F09129018BE50995E0912801F09102
:1011F000290183E40EC080915103E0912801F09110
:101200002901882329F081508093510388E001C08F
:1012100087E0099510925003D9C0813021F41B3525
:1012200011F482E0D1C010925003812F80528F358B
:1012300008F044C09091510380914C039817B1F489
:10124000E0912801F0912901812F099580915103A6
:10125000E82FF0E0EE5AFC4F10838F5F809351032C
:1012600080914C038F5F80934C03B0C08F5F80935D
:101270004C0309C0E82FF0E0EE5AFC4FDF01119754
:101280002C91208381509817A8F3E92FF0E0EE5AB3
:10129000FC4F10839F5F909351030E94FE071091B3
:1012A000510307C0E0912801F091290188E00995D8
:1012B0001F5F80914C031817A8F388C01A3011F0F3
:1012C0001D3011F5E0912801F09129018DE009957B
:1012D000E0912801F09129018AE0099580914C0361
:1012E000E82FF0E0EE5AFC4F10828F5F80934C03A2
:1012F000809151038F5F809351030E948B0810925D
:101300004C031092510362C01F3719F0183009F0D6
:1013100058C080915103882309F44CC090914C032C
:101320008917E9F4E0912801F091290188E00995F5
:10133000E0912801F091290180E20995E0912801CE
:10134000F091290188E0099580914C0381508093A8
:101350004C038091510381508093510337C09150C9
:1013600090934C0381508093510307C0E82FF0E025
:10137000EE5AFC4F218120838F5F8917B8F30E94BA
:10138000FE07E0912801F091290180E20995109172
:10139000510307C0E0912801F091290188E00995E7
:1013A0001F5F20914C0330E0812F90E02817390710
:1013B0008CF70CC0E0912801F091290187E0099594
:1013C00005C01B3119F481E0809350031F910895EB
:1013D00020E001C02F5FE22FF0E0EE5AFC4F908139
:1013E0009032C1F390E014C02F5FE22FF0E0EE5A8C
:1013F000FC4F3081332321F03032B1F701C02F5F31
:10140000E22FF0E0EE5AFC4F30813032C1F39F5FA3
:10141000981758F330E02E5A3C4FC9010895DF93D6
:10142000CF9300D0CDB7DEB70E94E809BE016F5F51
:101430007F4F4AE050E00E9423150F900F90CF910C
:10144000DF910895DF93CF9300D0CDB7DEB70E9430
:10145000E809BE016F5F7F4F40E150E00E94231515
:101460000F900F90CF91DF910895882331F485B7C5
:101470008C7F85BF85B7862B85BF0895882321F48F
:1014800070939302609392020895882321F410923E
:10149000930210929202089580E00E94450A0895F6
:1014A0001F920F920FB60F9211242F933F934F93D9
:1014B0005F936F937F938F939F93AF93BF93EF93BC
:1014C000FF938091920290919302009729F0E0910E
:1014D0009202F09193020995FF91EF91BF91AF9124
:1014E0009F918F917F916F915F914F913F912F913C
:1014F0000F900FBE0F901F901895EF92FF920F93D1
:101500001F9381E00E94220A7B018C0182E00E94ED
:10151000220AF70160831F910F91FF90EF900895C9
:101520006F927F928F929F92AF92BF92CF92DF92F3
:10153000EF92FF920F931F93CF93DF9381E00E946E
:10154000220AA62EC72E82E00E94220A7B018C016D
:101550008C2D6A2CE3016E01D82EE6019924882493
:10156000839404E511E09AE5C92E91E0D92E81E536
:10157000A82E81E0B82E4BC08881992009F5ADB71F
:10158000BEB719970FB6F894BEBF0FBEADBFEDB78B
:10159000FEB7319611968C92D282C1823E0173823F
:1015A0001482C5831682878310860E94220E8DB70F
:1015B0009EB709960FB6F8949EBF0FBE8DBF15C09B
:1015C00000D000D00F92EDB7FEB73196ADB7BEB7E1
:1015D00011968C9212830183838314820E94220EBF
:1015E0000F900F900F900F900F909394B92DB830EB
:1015F00069F400D00F92EDB7FEB78182B382A28268
:101600000E94220E0F900F900F9099242196EC16B5
:10161000FD0608F0B1CF00D00F9281E0ADB7BEB7A4
:1016200011968C9311978EE491E013969C938E9370
:1016300012970E94220E0F900F900F90DF91CF9182
:101640001F910F91FF90EF90DF90CF90BF90AF90E0
:101650009F908F907F906F9008959F92AF92BF92CE
:10166000CF92DF92EF92FF920F931F9381E00E943F
:10167000220AFB01A080BB24CC24DD248AE064E0A4
:1016800040E020E2860175010E947F0D00D00F929C
:1016900099249394EDB7FEB791828CE691E0938301
:1016A00082830E94220E0F900F900F9080E164E0E1
:1016B00040E020E20E947F0D00D00F92EDB7FEB710
:1016C00091828AE691E0938382830E94220E0F909A
:1016D0000F900F9082E068E040E020E30E947F0DD1
:1016E00000D00F92EDB7FEB7918288E691E0938328
:1016F00082830E94220EEDB7FEB7918286E691E0CA
:10170000938382830E94220E0F900F900F901F915F
:101710000F91FF90EF90DF90CF90BF90AF909F9090
:1017200008958AEC92E00E943B0D8BEA92E00E94C1
:101730003B0D85E792E00E943B0D83E592E00E941D
:101740003B0D84E192E00E943B0D82EE91E00E940D
:101750003B0D80EC91E00E943B0D08958F929F928B
:10176000AF92BF92DF92EF92FF920F931F93CF93AE
:10177000DF9381E00E940F0A862E82E00E940F0A0A
:10178000162F85E891E00E943B0D0E94B610DC0107
:10179000CB012DB73EB7275030400FB6F8943EBF6F
:1017A0000FBE2DBFEDB7FEB73196DD24D394CDB774
:1017B000DEB7D98222E831E03283218383839483A8
:1017C000A583B6830E94220EEDB7FEB737960FB6FB
:1017D000F894FEBF0FBEEDBF80E00E94D60600D099
:1017E00000D00F92EDB7FEB73196ADB7BEB71196E8
:1017F000DC922EE731E032832183948383830E943D
:10180000220E0F900F900F900F900F9080E00E948B
:10181000D60600D000D00F92EDB7FEB73196CDB707
:10182000DEB7D9822AE731E0328321839483838330
:101830000E94220E0F900F900F900F900F9084E750
:1018400091E00E943B0D81229924AA24BB248AE0C6
:1018500064E040E020E2850174010E947F0D00D029
:101860000F92EDB7FEB7D18282E791E09383828336
:101870000E94220E0F900F900F9080E164E040E0F4
:1018800020E20E947F0D00D00F92ADB7BEB7119637
:10189000DC92119780E791E013969C938E931297B8
:1018A0000E94220E0F900F900F9082E068E040E0BF
:1018B00020E30E947F0D00D00F92CDB7DEB7D98212
:1018C0008EE691E09B838A830E94220E0F900F90F8
:1018D0000F90DF91CF911F910F91FF90EF90DF90CC
:1018E000BF90AF909F908F90089589E891E00E94FB
:1018F0003B0D08950F931F93DF93CF930F92CDB7B6
:10190000DEB78FEF8093F2038E010F5F1F4F15C07C
:101910008981883419F0893439F403C00E94910B0D
:1019200002C00E94750C8DE00E94C708C8010E9489
:10193000A413882369F70E94F0078091F20388239B
:10194000A9F70F90CF91DF911F910F910895CF9339
:10195000DF930E947B1360E072EC81E090E00E94D4
:101960006113CBE9D3E1CE010E94E90C0E94AA07E2
:10197000CE010E94D6070E946B140E9470148FE063
:1019800091E061E97BE00E94B70784E191E06DE7B7
:101990007AE00E94B70789E191E06DE27BE00E9466
:1019A000B7078EE191E060E97AE00E94B70783E231
:1019B00091E06EEA7BE00E94B7070E94750C8DE013
:1019C0000E94C7080E947A0C80E090E0DF91CF91DE
:1019D0000895909395028093940208951F93182F71
:1019E0008A3031F4E0919402F09195028DE00995EE
:1019F000E0919402F0919502812F09951F9108952D
:101A0000CF93DF93009739F0EC0102C00E94EE0CF7
:101A100089918823D9F7DF91CF910895EF92FF92B2
:101A20000F931F93CF93DF937A010097E9F0FC01A6
:101A300080E090E0EF018617970718F000E010E0D3
:101A400010C02191EF0101962223A1F7F7CF8881E1
:101A5000882311F0219601C080E20E94EE0C0F5FF6
:101A60001F4F0E151F0598F3DF91CF911F910F9116
:101A7000FF90EF900895CF93DF93EC01009719F456
:101A800007C00E94EE0CFE01219684918823C9F7BD
:101A9000DF91CF9108958AE00E94EE0C0895E82F1F
:101AA000F0E0EF70F070EB52FD4F84910E94EE0C6D
:101AB00008951F93182F82958F700E944F0D812FCC
:101AC0000E944F0D1F9108951F93182F892F0E9478
:101AD000590D812F0E94590D1F910895EF92FF9289
:101AE0000F931F937B018C01C8010E94640DC701F5
:101AF0000E94640D1F910F91FF90EF9008952F9217
:101B00003F924F925F927F928F929F92AF92BF923D
:101B1000CF92DF92EF92FF920F931F93DF93CF93B9
:101B2000CDB7DEB7A2970FB6F894DEBF0FBECDBF1C
:101B3000282E862E942E722E57016801442351F0D0
:101B400017FF08C066277727CB016E197F09800B26
:101B5000910B02C0C601B50118A2332444245524B8
:101B6000A20191010E9401156F7070706B527D4F40
:101B7000FB0164916F8FB901CA018E01025E1F4F94
:101B8000382D315021E0992009F420E0321BA801C2
:101B9000431B51095AA349A318C06115710581055A
:101BA000910579F0A20191010E9401156F7070708A
:101BB0006B527D4FFB016491F8016083B901CA014A
:101BC00002C0F80170820150104078010894E11CB5
:101BD000F11C29A13AA102171307F9F69920C1F0C7
:101BE000D7FE03C078018DE20AC0A114B104C1047C
:101BF000D10419F078018BE202C0780180E2F7018C
:101C0000808306C0F70181917F010E94EE0C8A94C7
:101C10008820C1F7A2960FB6F894DEBF0FBECDBFE5
:101C2000CF91DF911F910F91FF90EF90DF90CF90B8
:101C3000BF90AF909F908F907F905F904F903F901C
:101C40002F9008954F925F926F927F928F929F9202
:101C5000AF92BF92CF92DF92EF92FF920F931F93BA
:101C6000DF93CF930F92CDB7DEB75C88ED88FE8807
:101C700057E1C52ED12CCC0EDD1E4AE0642E712C0E
:101C80001AC08823A1F480E090E00F90CF91DF91FB
:101C90001F910F91FF90EF90DF90CF90BF90AF908A
:101CA0009F908F907F906F905F904F9008950E94CB
:101CB000EE0C5601650197012F5F3F4F552021F033
:101CC000F7017901849103C0F701808179018532A0
:101CD000C1F62F5F3F4F552021F0F7017901849124
:101CE00003C0F70180817901843629F0883781F0BB
:101CF0008336E9F606C03AE0832E912C00E117E224
:101D00000CC0F601808122E030E0C20ED31ECFCF9E
:101D100020E1822E912C00E010E192E0A92EB12C5E
:101D2000AC0CBD1CF601C080D1808436A9F4D7FE6E
:101D300010C0D094C194D108D3948DE20E94EE0CCF
:101D400008C0C801B3010E94ED148B016230710517
:101D500018F0C016D106A8F3C601B8010E94ED1410
:101D6000482E862F99830E944F0DC42C9981D92E1D
:101D7000C801B4010E94ED148B016115710561F772
:101D800099CF86E084B987E085B980E593EC0E941D
:101D9000F91082E00E94AE0F0E9416110E941F11DE
:101DA00088EB9BE00E94471188EB9BE00E944C115E
:101DB00008958854944F21E0843F92072CF027E245
:101DC0008131920724F405C084EF91E002C080E1E4
:101DD00097E26115710501F527C020918A003091C5
:101DE0008B008217930738F420918A0030918B0082
:101DF0002150304006C020918A0030918B002F5F27
:101E00003F4F30938B0020938A0020918A003091BD
:101E10008B002817390761F020918A0030918B00E0
:101E200028173907D1F6089590938B0080938A0084
:101E3000089586E084B987E085B989E09DE30E9432
:101E4000F91085E00E94AE0F0E94161180E090E02C
:101E50000E9447110895009731F02DE389309207D1
:101E600010F089E09DE30E944711089588E284B94B
:101E7000229A3C9A249886ED8CBD08952A9808955C
:101E80002A9A08950E94400F8FE99FE00197F1F789
:101E900000C000000E943E0F08958EBD0DB407FEE5
:101EA000FDCF08950DB407FEFDCF8EB508950895BA
:101EB000813039F0813028F1823061F0833009F5CA
:101EC00012C080916E00877F80936E0080916E00BB
:101ED0008D7F11C080916E00877F80936E0080910E
:101EE0006E00826016C080916E00877F80936E00C6
:101EF00080916E00826080936E0080916E008160A0
:101F00000DC080916E00877F80936E0080916E007F
:101F10008D7F80936E0080916E008E7F80936E0027
:101F200080916E00826080936E00A99A089595B5A5
:101F3000987F982B95BD089582E00E94970F16BC5C
:101F4000EEE6F0E08081816080831092F3031092CE
:101F5000F4031092F5031092F6030895E1E8F0E01F
:101F60009081987F982B9083089581E00E94AE0F16
:101F70001092850010928400EFE6F0E0808181608D
:101F800080830895E1EBF0E09081987F982B908317
:101F9000089584E00E94C20F1092B200E0E7F0E0E2
:101FA0008081816080831092FB031092FC03109269
:101FB000FD031092FE030895E5B5F0E0E770F070C0
:101FC000EE0FFF1FEA51FD4F25913491C90108958D
:101FD000E0918100F0E0E770F070EE0FFF1FEA5132
:101FE000FD4F25913491C9010895E091B100F0E0D1
:101FF000E770F070EE0FFF1FEE50FD4F259134910A
:10200000C90108958A3040F4E82FF0E0EE0FFF1F79
:10201000EA56FD4F7183608308958A3040F4E82FBB
:10202000F0E0EE0FFF1FEA56FD4F11821082089577
:102030001F9310E0812F0E940D101F5F1A30D1F7FF
:102040000E949C0F0E94B50F0E94C90F78941F91A7
:102050000895DF92EF92FF920F931F93CF93DF9338
:10206000EC01D6B41092F7031092F8031092F90322
:102070001092FA030E94DC0F9C0140E050E060E007
:1020800074E284EF90E00E94011579018A01293BF6
:102090008DE8380786E0480780E0580790F487E22B
:1020A000C131D80770F49E0140E050E0C801B7018B
:1020B0000E94CE1428EE33E040E050E00E9401156B
:1020C00027C0C801B70128EE33E040E050E00E948D
:1020D000011579018A019E0140E050E0C801B70175
:1020E0000E94CE149B01AC0113C08091F703909124
:1020F000F803A091F903B091FA0383B7817F83BFFE
:1021000083B7816083BF889583B78E7F83BF04C008
:102110002D0D311D411D511DE090F703F090F80386
:102120000091F9031091FA0386B590E0A0E0B0E0C9
:10213000102F0F2DFE2CEE248E299F29A02BB12BC2
:1021400082179307A407B50780F2DF91CF911F9103
:102150000F91FF90EF90DF9008951092F30310928B
:10216000F4031092F5031092F60308952091F303FF
:102170003091F4034091F5035091F603B901CA017F
:1021800008951092FB031092FC031092FD0310922D
:10219000FE0308952091FB033091FC034091FD0361
:1021A0005091FE03B901CA010895893049F4809124
:1021B0008000826080938000809180008E7F0EC0BE
:1021C0008A3021F480918000826003C08091800079
:1021D0008D7F80938000809180008160809380005B
:1021E000109289001092880010928B0010928A0041
:1021F0000895E0E8F0E020812E7F20832081226096
:102200002083E1E8F0E020812860208320812061A4
:10221000208390938700809386001092890010920B
:10222000880010928B0010928A000895E0E8F0E098
:1022300080818068808380818F7B80830895E0E83F
:10224000F0E080818062808380818F7E808308952A
:10225000E0E8F0E080818F77808380818F7B8083CE
:102260000895E0E8F0E080818F7D808380818F7E1B
:1022700080830895E0E8F0E080818D7F8083808115
:102280008E7F80830E9428110E94311108959093BF
:10229000890080938800089590938B0080938A0032
:1022A0000895E0EBF0E080818068808380818F7BFF
:1022B0008083808181608083808182608083E1EB84
:1022C000F0E08081877F80830895E0EBF0E08081FB
:1022D0008062808380818F7E80830895E0EBF0E0D0
:1022E00080818F77808380818F7B80830895809326
:1022F000B30008958093B40008951F920F920FB613
:102300000F9211242F933F934F935F936F937F937B
:102310008F939F93AF93BF93EF93FF938091F303BA
:102320009091F403A091F503B091F6030196A11DDD
:10233000B11D8093F3039093F403A093F503B0933E
:10234000F6038091F7039091F803A091F903B091FF
:10235000FA030196A11DB11D8093F7039093F80332
:10236000A093F903B093FA0380919602909197029B
:10237000009729F0E0919602F09197020995FF915C
:10238000EF91BF91AF919F918F917F916F915F91ED
:102390004F913F912F910F900FBE0F901F90189566
:1023A0001F920F920FB60F9211242F933F934F93CA
:1023B0005F936F937F938F939F93AF93BF93EF93AD
:1023C000FF9380919C0290919D02009729F0E091EB
:1023D0009C02F0919D020995FF91EF91BF91AF9101
:1023E0009F918F917F916F915F914F913F912F912D
:1023F0000F900FBE0F901F9018951F920F920FB65F
:102400000F9211242F933F934F935F936F937F937A
:102410008F939F93AF93BF93EF93FF938091FB03B1
:102420009091FC03A091FD03B091FE030196A11DC4
:10243000B11D8093FB039093FC03A093FD03B09325
:10244000FE038091A4029091A502009729F0E091EB
:10245000A402F091A5020995FF91EF91BF91AF9170
:102460009F918F917F916F915F914F913F912F91AC
:102470000F900FBE0F901F9018951F920F920FB6DE
:102480000F9211242F933F934F935F936F937F93FA
:102490008F939F93AF93BF93EF93FF938091980295
:1024A00090919902009729F0E0919802F091990299
:1024B0000995FF91EF91BF91AF919F918F917F917E
:1024C0006F915F914F913F912F910F900FBE0F90A1
:1024D0001F9018951F920F920FB60F9211242F93F1
:1024E0003F934F935F936F937F938F939F93AF939C
:1024F000BF93EF93FF9380919A0290919B02009774
:1025000029F0E0919A02F0919B020995FF91EF91D9
:10251000BF91AF919F918F917F916F915F914F91FB
:102520003F912F910F900FBE0F901F9018951F9203
:102530000F920FB60F9211242F933F934F935F93F7
:102540006F937F938F939F93AF93BF93EF93FF937B
:1025500080919E0290919F02009729F0E0919E0247
:10256000F0919F020995FF91EF91BF91AF919F91DB
:102570008F917F916F915F914F913F912F910F902C
:102580000FBE0F901F9018951F920F920FB60F92CB
:1025900011242F933F934F935F936F937F938F9368
:1025A0009F93AF93BF93EF93FF938091A00290917D
:1025B000A102009729F0E091A002F091A1020995F3
:1025C000FF91EF91BF91AF919F918F917F916F910B
:1025D0005F914F913F912F910F900FBE0F901F90E1
:1025E00018951F920F920FB60F9211242F933F93BD
:1025F0004F935F936F937F938F939F93AF93BF930B
:10260000EF93FF938091A2029091A302009729F08B
:10261000E091A202F091A3020995FF91EF91BF9181
:10262000AF919F918F917F916F915F914F913F916A
:102630002F910F900FBE0F901F9018951F920F9221
:102640000FB60F9211242F933F934F935F936F9385
:102650007F938F939F93AF93BF93EF93FF9380915B
:10266000A6029091A702009729F0E091A602F091AE
:10267000A7020995FF91EF91BF91AF919F918F9123
:102680007F916F915F914F913F912F910F900FBE6E
:102690000F901F90189580E094E06CEA72E040E49F
:1026A00050E00E940E0789E094E06CEE72E040E496
:1026B00050E00E940E0708959093AB028093AA0207
:1026C00008959B01AC0182E08093C00088E980936B
:1026D000C10083E0220F331F441F551F8A95D1F795
:1026E00060E074E284EF90E00E9401152150209395
:1026F000C400789408950E944B131092AB0210927C
:10270000AA0288ED8093C10060E072EC81E090E065
:102710000E9461138FEF8093FF03109208041092C0
:102720001204109211047894089580E094E00895C2
:1027300089E094E008959091C00095FFFCCF8093CC
:10274000C6001092FF030895CF93DF93EC018091B0
:10275000020490910304009769F080910404909121
:102760000504009739F080E094E00E941B078883FD
:102770008FEF01C080E0DF91CF910895DF93CF9379
:102780000F92CDB7DEB7CE0101960E94A413882325
:1027900019F0298130E002C02FEF3FEFC9010F90FF
:1027A000CF91DF91089510920504109204040895CA
:1027B0008091040490910504009711F48FEF08951F
:1027C00080E00895682F89E094E00E9473070895DF
:1027D0008FEF8093080489E094E00E941B070E9419
:1027E0009B1308951F920F920FB60F9211242F93EF
:1027F0003F934F935F936F937F938F939F93AF9389
:10280000BF93EF93FF9380910804882379F0809120
:102810000D0490910E04009739F089E094E00E9435
:102820001B078093C60005C0109208048FEF8093A9
:10283000FF03FF91EF91BF91AF919F918F917F9196
:102840006F915F914F913F912F910F900FBE0F901D
:102850001F9018951F920F920FB60F9211242F936D
:102860003F934F935F936F937F938F939F93AF9318
:10287000BF93EF93FF936091C6002091AA0230911D
:10288000AB022115310539F0E091AA02F091AB02BB
:10289000862F09950FC080E094E00E94730788237B
:1028A00049F48091110490911204019690931204BE
:1028B00080931104FF91EF91BF91AF919F918F9100
:1028C0007F916F915F914F913F912F910F900FBE2C
:1028D0000F901F90189584E293E00E943B0D08959D
:1028E0008FE193E00E943B0D089500D000D00F923D
:1028F000EDB7FEB7319691E0ADB7BEB711969C9398
:1029000029E133E032832183838314820E94220EE3
:102910000F900F900F900F900F900895882349F01B
:1029200000D00F9281E0EDB7FEB7818382E193E0A2
:1029300008C000D00F9281E0EDB7FEB781838BE035
:1029400093E0938382830E94220E0F900F900F904A
:1029500008952DB73EB7275030400FB6F8943EBFCC
:102960000FBE2DBFEDB7FEB7319691E0ADB7BEB744
:1029700011969C9322E033E0328321838383148277
:10298000658316820E94220E2DB73EB7295F3F4F06
:102990000FB6F8943EBF0FBE2DBF0895629FD001C1
:1029A000739FF001829FE00DF11D649FE00DF11D0A
:1029B000929FF00D839FF00D749FF00D659FF00DB9
:1029C0009927729FB00DE11DF91F639FB00DE11DA6
:1029D000F91FBD01CF0111240895AA1BBB1B51E1B2
:1029E00007C0AA1FBB1FA617B70710F0A61BB70B7F
:1029F000881F991F5A95A9F780959095BC01CD0124
:102A00000895A1E21A2EAA1BBB1BFD010DC0AA1F2F
:102A1000BB1FEE1FFF1FA217B307E407F50720F047
:102A2000A21BB30BE40BF50B661F771F881F991FC2
:102A30001A9469F760957095809590959B01AC010B
:102A4000BD01CF0108952F923F924F925F927F92E6
:102A50008F929F92AF92BF92CF92DF92EF92FF92AE
:102A60000F931F93CF93DF934B01EA01611571051B
:102A700019F0FB0180839183209739F09E01225049
:102A800030402332310508F0F4C0A82EB92EF501EC
:102A900011915F017F01812F90E00E9450160097F5
:102AA000B1F71D3229F4F50111917F0101E006C053
:102AB0001B3219F4F50111917F0100E0209719F004
:102AC000C031D105B9F4103381F4F7018081883722
:102AD00011F0883551F4F701118182E090E0E80EA1
:102AE000F91E0260C0E1D0E005C0209719F4103350
:102AF000C1F422C0C830D105F9F0C930D10524F4A1
:102B0000C230D10509F507C0CA30D10551F0C03136
:102B1000D105D1F427C0A12CB12CC12CF0E4DF2EBB
:102B200026C0CAE0D0E0ECECAE2EECECBE2EECEC15
:102B3000CE2EECE0DE2E1BC0C8E0D0E0A12CB12CE4
:102B4000C12C70E1D72E13C09E01442737FD40955C
:102B5000542F60E070E080E090E80E940115590178
:102B60006A0105C0A12CB12CC12C68E0D62E40E032
:102B700060E070E0CB011E01442437FC4094542CEB
:102B800050ED752E710EE72DEA3070F0212F215493
:102B90002A3118F439EC732E06C0212F21562A3120
:102BA00030F529EA722E710E272D30E02C173D07E3
:102BB000F4F447FD18C0A616B706C806D90680F07B
:102BC000A20191010E94CE14670D711D811D911DFE
:102BD0006130F0E07F07F0E08F07F0E89F0710F02A
:102BE0004FEF01C041E0F70111917F01C9CF81147E
:102BF000910491F0442339F00894E108F108F401BC
:102C0000F182E08209C001FF1BC0970122503040D1
:102C1000F4013183208314C047FF12C000FF05C0B8
:102C200060E070E080E090E804C06FEF7FEF8FEF2E
:102C30009FE722E230E0309314042093130416C07F
:102C400000FF08C090958095709561957F4F8F4FDC
:102C50009F4F0CC097FF0AC082E290E0909314044B
:102C6000809313046FEF7FEF8FEF9FE79B01AC0121
:102C700003C020E030E0A901B901CA01DF91CF9182
:102C80001F910F91FF90EF90DF90CF90BF90AF908A
:102C90009F908F907F905F904F903F902F900895DE
:102CA00091113CC0803219F089508550D0F70895B9
:102CB000FB01DC0101900D920020E1F70895FB017A
:102CC000DC014150504030F08D910190801919F491
:102CD0000020B9F7881B990B0895F999FECF92BD92
:102CE00081BDF89A992780B50895A8E1B0E042E047
:102CF00050E00C949316262FF999FECF1FBA92BD7F
:102D000081BD20BD0FB6F894FA9AF99A0FBE0196CC
:102D100008950E947B16272F0C947C1699278827EC
:102D20000895DC01CB01FC01F999FECF06C0F2BD8C
:102D3000E1BDF89A319600B40D9241505040B8F779
:062D40000895F894FFCF96
:102D46003C535041443E003C2F535041443E0068A2
:102D5600656C7000706F6B65007065656B006475FF
:082D66006D70007465737400C8
:00000001FF
