:100000000C94B3010C948F0D0C94080E0C94D00139
:100010000C94D0010C94D0010C94D0010C94EE14EB
:100020000C94D0010C94CD130C94C1140C9467144F
:100030000C9494140C94300E0C940D140C943A14EB
:100040000C947A130C94D0010C94FA150C94D001F2
:100050000C94C2150C941E070C94D0010C94D00182
:100060000C94D0010C94D00125642E004445565FB9
:100070004E4F545F464F554E44002D002D003032F8
:1000800020745F726561645F736C6F7420203A2026
:1000900025640A00303220745F726561645F7361A9
:1000A0006D7020203A2025640A00303220745F777A
:1000B000726974655F736C6F74203A2025640A005E
:1000C000303220745F77726974655F6C6F772020BF
:1000D0003A2025640A00303220745F7265736574BB
:1000E0005F72782020203A2025640A003032207484
:1000F0005F72657365745F74782020203A202564F0
:100100000A00303120745F636F6E7620202020203B
:1001100020203A2025640A004444313878323020C7
:1001200054696D696E670A002E00256400636D6472
:100130003E00636D646C696E653A2000636F6D6D9F
:10014000616E64206E6F7420666F756E64003C2F64
:1001500025643E0D0A003C25643E003C72657365D3
:10016000743E3C2F72657365743E000D0A000D0AE3
:100170000020307825780030782578257820307870
:100180002578000A00090009000900090009000992
:10019000003C2F743E0A00202564002025640025C1
:1001A00064003C743E0041767233323870436F6EA7
:1001B000736F6C65203332385020444151205631E2
:1001C000342E30332E32342C20427920416E64722A
:1001D0007A656A20426F726F776965630074657330
:1001E00074202020202020202020202020203A20A1
:1001F000746573742066756E6374696F6E0A00703F
:100200006F6B65205B7265675D205B76616C5D205E
:100210003A20736574732072656769737465722020
:1002200076616C756520746F205B76616C5D200A69
:10023000007065656B205B7265675D202020202063
:1002400020203A2072657475726E73206465632C89
:100250002068657820616E642062696E2076616C2A
:100260007565206F662072656769737465720A0030
:10027000746573742020202020202020202020203E
:10028000203A20746573742066756E6374696F6EAE
:100290000A0049202020202020202020202020206B
:1002A0002020203A207072696E747320646576692C
:1002B000636520494420616E642076657273696FBE
:1002C0006E20696E666F0A004820202020202020C2
:1002D0002020202020202020203A207072696E7477
:1002E0002068656C700A00436F6D6D616E64733ACF
:1002F0000A00496E74657272757074310A005D3C53
:100300002F6A736F6E3E0A002C002C003C6A736FDC
:100310006E3E5B0030313233343536373839414246
:100320004344454600000001000800400000010071
:1003300004000001000800200040008000000100CF
:10034000041B5B25643B256448001B5B3F32356C16
:10035000001B5B3F323568001B5B25646D001B5B37
:10036000324A001B630011241FBECFEFD8E0DEBF6E
:10037000CDBF11E0A0E0B1E0E6EEF0E302C00590F1
:100380000D92A233B107D9F714E0A2E3B1E001C0A6
:100390001D92A333B107E1F70E94760E0C947118F9
:1003A0000C940000EAE3F3E0119283E0E334F807F1
:1003B000D9F7109243031092440310924503109210
:1003C000460310924703109248031092490310927B
:1003D0004A0310924E03219A299A80E090E00E94ED
:1003E00045189093500380934F0382E090E00E9461
:1003F0004518909352038093510384E090E00E944B
:100400004518909354038093530386E090E00E9434
:100410003D188093550387E090E00E943D1880933B
:10042000560388E090E00E943D188093570389E0CE
:1004300090E00E943D1880935803089580934E03E6
:10044000089502C0000001970097E1F708951F93F7
:10045000CF93DF93219A35B1C1E0D0E0CE01009077
:100460004E0302C0880F991F0A94E2F7282F2095A7
:10047000232325B924B1282B24B9809151039091CD
:1004800052030E94210224B1CE0100904E0302C00B
:10049000880F991F0A94E2F78095822384B982E03D
:1004A00090E00E94210283B100904E0302C0CC0F65
:1004B000DD1F0A94E2F78C2383B913B180915303B3
:1004C000909154030E942102812FDF91CF911F91BF
:1004D00008951F93CF93DF93182F95B1C1E0D0E01B
:1004E0009E0100904E0302C0220F331F0A94E2F7D0
:1004F000822F8095892385B984B1822B84B980911C
:10050000550390E00E942102112369F094B10090FC
:100510004E0302C0CC0FDD1F0A94E2F79E01209526
:10052000822F892384B98091560390E00E94210292
:1005300024B181E090E000904E0302C0880F991F23
:100540000A94E2F78095822384B9DF91CF911F91BD
:100550000895CF93DF93299825B181E090E0009032
:100560004E0302C0880F991F0A94E2F7382F309586
:10057000232325B924B1282B24B984B1832384B93A
:100580008091570390E00E942102299A83B1C82FDD
:10059000D0E000904E0302C0D595C7950A94E2F7CB
:1005A000C170D0708091580390E00E9421028C2F7E
:1005B000DF91CF9108950F931F93F89410E008E016
:1005C00007C00E94A9028795882787951695182B42
:1005D0000150B8F77894812F1F910F9108950F93D0
:1005E0001F93082FF89418E005C0802F81700E9497
:1005F000690206951150C8F778941F910F910895DC
:10060000EF92FF920F931F93CF93DF9380E091E0DF
:100610000E94FD0ECAE3D3E0E990FF2400E010E061
:100620008AE064E040E020E20E947C0F83E0C33473
:10063000D80791F787E091E00E94FD0EDF91CF91FE
:100640001F910F91FF90EF900895CF92DF92EF925C
:10065000FF920F931F93CF93DF93C3E4D3E0DD2486
:10066000CC24C3948AE2E82E81E0F82E08E211E05F
:10067000899100D000D00F92EDB7FEB73196ADB79B
:10068000BEB71196CC92F282E182838314820E94DB
:100690001F100F900F900F900F900F90BD2DB7303F
:1006A00061F000D00F92EDB7FEB7C18213830283D1
:1006B0000E941F100F900F900F90D394FD2DF830D3
:1006C000B9F6DF91CF911F910F91FF90EF90DF90DE
:1006D000CF9008951F9300D00F9211E0ADB7BEB731
:1006E00011961C93119788E191E013969C938E9339
:1006F00012970E941F1000D0EDB7FEB73196ADB72C
:10070000BEB711961C9382E091E092838183809121
:100710004F0390915003948383830E941F10EDB781
:10072000FEB73196ADB7BEB711961C938CEE90E034
:1007300092838183809151039091520394838383A8
:100740000E941F10EDB7FEB73196ADB7BEB7119638
:100750001C9386ED90E09283818380915303909166
:100760005403948383830E941F10EDB7FEB7319624
:10077000ADB7BEB711961C9380EC90E09283818355
:1007800080915503838314820E941F10EDB7FEB73A
:100790003196ADB7BEB711961C938AEA90E092836A
:1007A000818380915603838314820E941F10EDB7CA
:1007B000FEB73196ADB7BEB711961C9384E990E0B1
:1007C0009283818380915703838314820E941F1038
:1007D000EDB7FEB73196ADB7BEB711961C938EE755
:1007E00090E09283818380915803838314820E94D6
:1007F0001F100F900F900F900F900F901F91089562
:10080000F8948430D9F0853038F4823079F0833030
:1008100090F4813001F507C08630B1F0863088F061
:100820008730C9F414C080E090E002C082E090E01C
:100830000E94591810C084E090E0FACF86E090E062
:1008400008C087E090E005C088E090E002C089E041
:1008500090E00E944B180E94D201789408950F9363
:100860001F93CF93DF93F89403E413E0C82FD0E0F5
:1008700093E0CC0FDD1F9A95E1F7C65FDF4FF801DB
:1008800061918F01CE010E944B182196F3E00B3449
:100890001F07A9F77894DF91CF911F910F910895C9
:1008A000282F392FD901E3E4F3E08D91819383E080
:1008B000EC34F807D1F70895CF93DF938091430389
:1008C000882321F48CEC0E94EF020CC085E50E9485
:1008D000EF02C3E4D3E089910E94EF0283E0CB34BE
:1008E000D807C9F7DF91CF9108958CEC0E94EF02F1
:1008F00084E40E94EF02089598E028E1362F38271B
:1009000030FD02C0669503C062276695606891500D
:1009100011F08695F3CF862F0895AF92BF92DF92A4
:10092000EF92FF920F931F93DF93CF930F92CDB768
:10093000DEB77C015B01FB0110828C01DD240CC061
:10094000F80181918F01F501608149830E947C0447
:10095000F5018083D3944981D41690F3F701E40F15
:10096000F11D81E02081F5019081291380E00F9035
:10097000CF91DF911F910F91FF90EF90DF90BF908B
:10098000AF900895EF92FF920F931F93DF93CF9351
:100990000F92CDB7DEB7E82E0E945C048EEB0E946A
:1009A000EF020AE313E0FF2406C00E94DB02F80115
:1009B00081938F01F394FE14C0F319824E2D4150A0
:1009C0008AE393E0BE016F5F7F4F0E948D040F901A
:1009D000CF91DF911F910F91FF90EF900895DF92DB
:1009E000EF92FF920F931F93CF93DF93EC0187EE6B
:1009F00093E0998388838FE097E29B838A830E94A8
:100A0000270289E00E94C204D82E882309F4CEC0B0
:100A100080914303803109F08FC030913B0320E087
:100A200080913A0390E0822B932B998388832091C5
:100A30003B03959587952F3FA1F599838883409136
:100A400040034C3068F050E021E732E0429FC001A3
:100A5000439F900D529F900D11248C549D4169C06D
:100A60000196998388836091400370E041E752E0EA
:100A7000649F9001659F300D749F300D11242C539D
:100A8000364F3B832A83009709F090C000D00F9225
:100A900081E0ADB7BEB711968C9311978CE790E0CB
:100AA0007CC099838883409140034D30B0F1019719
:100AB0009983888380913A0340914003882301F50C
:100AC00050E021E732E0429FC001439F900D529FCA
:100AD000900D11248C549D419B838A831982188226
:100AE000809140038D3008F461C000D00F9281E006
:100AF000EDB7FEB781838AE790E09383828351C08C
:100B000050E02FE83DEF429FC001439F900D529F60
:100B1000900D1124845A9B4B0CC050E02FE83DEF00
:100B2000429FC001439F900D529F900D1124845B02
:100B3000924E9B838A833AC0883229F530913B03D9
:100B400020E080913A0390E0822B932B24E095954E
:100B500087952A95E1F79983888330913B0320E0BC
:100B600080913A0390E0822B932B8F70907041E735
:100B700052E0849F9001859F300D949F300D112489
:100B80003B832A8313C000D00F9281E0ADB7BEB77C
:100B900011968C9311978CE690E013969C938E930C
:100BA00012970E941F100F900F900F9000D000D04E
:100BB0000F92EDB7FEB7319681E0ADB7BEB7119693
:100BC0008C9388E690E092838183888199819483D5
:100BD00083830E941F100F900F900F900F900F9023
:100BE000EA80FB800027F7FC0095102F8AE064E084
:100BF00040E020E30E947C0F8D2DDF91CF911F916B
:100C00000F91FF90EF90DF9008950F931F93DF9364
:100C1000CF930F92CDB7DEB719820E9427028CECDA
:100C20000E94EF020E94270283E30E94EF0203E486
:100C300013E00E94DB02F80181938F01F3E00B3493
:100C40001F07B9F7C8010897BE016F5F7F4F47E0E4
:100C50000E948D040F90CF91DF911F910F91089505
:100C6000EF92FF920F931F93DF93CF930F92CDB725
:100C7000DEB7082F10E053E0000F111F5A95E1F77F
:100C8000065F1F4F43E4E42E43E0F42EC8010E94A8
:100C90003D18F70181937F010F5F1F4FFBE4EF16B3
:100CA000F3E0FF0699F7C7010897BE016F5F7F4F1A
:100CB00047E00E948D040F90CF91DF911F910F911B
:100CC000FF90EF900895CF93DF93EB0127EE33E091
:100CD000398328832FE037E23B832A830E94300642
:100CE000882389F10E9427020E9475048FEF93ECFC
:100CF000A9E081509040A040E1F700C000000E94B0
:100D0000270289E00E94C2048823F1F050913B033E
:100D100040E020913A0330E0242B352B3595279580
:100D2000398328836091400370E04FE85DEF649F52
:100D30009001659F300D749F300D1124205F384D58
:100D40003B832A8301C080E0DF91CF910895EAE7D9
:100D5000F0E08081877F808380818F778083089512
:100D6000EAE7F0E09081987F982B90830895ECE774
:100D7000F0E090818295880F880F807C9F73892B8B
:100D800080830895CF93DF93CAE7D0E0888180689D
:100D9000888388818F7D888386E00E94B00681E009
:100DA0000E94B706ECE7F0E080818F7D8083888128
:100DB00088608883109259037894DF91CF910895C9
:100DC000ECE7F0E090818F71907E892B808308950D
:100DD000EAE7F0E0808180618083808180648083A5
:100DE000089580917A00807408951092590390912B
:100DF0007C008F71907E892B80937C0080917A009B
:100E0000806180937A0080917A00806480937A0078
:100E100080917A0086FDFCCF209178003091790096
:100E2000932F80E030E0282B392BC90108950E94D0
:100E3000F506969587959695879508951F920F923A
:100E40000FB60F9211248F938FEF809359038F91D8
:100E50000F900FBE0F901F901895FC018FB7F8945C
:100E600071836083538342831782168215821482B2
:100E70008FBF0895FC019FB7F894448155814115B7
:100E80005105C9F026813781A081B181A20FB31F1E
:100E90008C912F5F3F4F37832683628173812617A2
:100EA000370720F0261B370B3783268341505040ED
:100EB0005583448301C080E09FBF0895FC01AFB714
:100EC000F8942481358162177307A0F48681978195
:100ED000860F971F978386834281538184179507D6
:100EE00020F0841B950B97838683261B370B358355
:100EF000248302C015821482AFBF0895FC01CB0188
:100F00002FB7F89446815781840F951F62817381B2
:100F10000E94BD160190F081E02DE80FF91F80813D
:100F20002FBF08951F93FC01162F4FB7F894A4818B
:100F3000B58122813381A217B307A0F486819781FE
:100F40008A0F9B1FB9010E94BD16A081B181A80F15
:100F5000B91F1C93848195810196958384834FBF2B
:100F60008FEF02C04FBF80E01F910895FC014FB783
:100F7000F8942281338184819581281B390B4FBFDE
:100F8000C90108952FB7F894FC01158214822FBF70
:100F9000089510925E0310925A0310925F0310920C
:100FA0005C0310925B0310925D0310923401109267
:100FB0003501109236011092370108951F93CF9397
:100FC000DF939C01EB0110915D038AE0189FC00143
:100FD0001124885C9E4FB9010E942818E12FF0E08F
:100FE000EE0FFF1FEC59FD4FD183C0831F5F10939D
:100FF0005D03DF91CF911F9108959093330180930A
:10100000320108958DB79EB707970FB6F8949EBF2B
:101010000FBE8DBFEDB7FEB7319681E0ADB7BEB75D
:1010200011968C9386E591E09283818380913401BF
:1010300090913501A0913601B0913701838394835B
:10104000A583B6830E941F108DB79EB707960FB673
:10105000F8949EBF0FBE8DBF0895E0915B03F091A1
:101060005C03309739F0099510925C0310925B0392
:101070000E94020808951F93CF93DF93E0913201FD
:10108000F09133018DE009950E94020810915A03F6
:10109000C0E6D3E007C0E0913201F09133018991BD
:1010A000099511501123B9F7DF91CF911F91089540
:1010B000CF93DF93882319F08130F9F40BC080912E
:1010C00060038823D1F080EB93E060E673E00E9438
:1010D000281813C0C0E6D3E0CE0160EB73E00E9495
:1010E000281809900020E9F72197C056D340C093F3
:1010F0005A03C0935F030E943B08DF91CF9108958C
:101100008091340190913501A0913601B091370161
:101110000196A11DB11D8093340190933501A093D8
:101120003601B093370108958DB79EB707970FB674
:10113000F8949EBF0FBE8DBFEDB7FEB7319681E02C
:10114000ADB7BEB711968C938EE491E09283818304
:101150008091340190913501A0913601B091370111
:1011600083839483A583B6830E941F108DB79EB797
:1011700007960FB6F8949EBF0FBE8DBF0E948008E1
:101180000895CF93DF93C2E3D1E008C02196FC011C
:101190008491E0913201F09133010995CE01FE0175
:1011A0002491222399F7C0E6D3E005C0E0913201F3
:1011B000F091330109958991882311F08032B1F7BC
:1011C000E0913201F09133018AE30995E091320117
:1011D000F091330180E20995CCE3D1E005C021967E
:1011E000FC018491F9010995CE01FE014491209101
:1011F000320130913301442391F78DE0F9010995D3
:10120000E0913201F09133018AE00995DF91CF91AD
:1012100008950F931F9380E00E94580800E001C0DA
:101220000F5FE02FF0E0E05AFC4F8081803211F038
:101230008823B1F7002321F110E01CC02AE0129F9F
:10124000C0011124885C9E4F60E673E0402F50E09F
:101250000E942F18009769F4E12FF0E0EE0FFF1FB6
:10126000EC59FD4F8081918190935C0380935B03E7
:1012700009C01F5F80915D03181700F30E94C10829
:101280000E9402081F910F9108951F93182F8091BB
:101290005E03823009F03FC0123461F0133418F459
:1012A0001134B1F505C0133449F0143489F521C067
:1012B00081E001C082E00E9458082AC080915F034B
:1012C00090915A03E0913201F09133018917F0F4C3
:1012D0008F5F80935F038BE10995E0913201F0917C
:1012E00033018BE50995E0913201F091330183E4FC
:1012F0000EC080915F03E0913201F09133018823A9
:1013000029F0815080935F0388E001C087E0099550
:1013100010925E03D9C0813021F41B3511F482E0B4
:10132000D1C010925E03812F80528F3508F044C0E7
:1013300090915F0380915A039817B1F4E0913201C4
:10134000F0913301812F099580915F03E82FF0E040
:10135000E05AFC4F10838F5F80935F0380915A03A4
:101360008F5F80935A03B0C08F5F80935A0309C088
:10137000E82FF0E0E05AFC4FDF0111972C91208319
:1013800081509817A8F3E92FF0E0E05AFC4F108342
:101390009F5F90935F030E943B0810915F0307C01B
:1013A000E0913201F091330188E009951F5F80914F
:1013B0005A031817A8F388C01A3011F01D3011F520
:1013C000E0913201F09133018DE00995E091320115
:1013D000F09133018AE0099580915A03E82FF0E0FB
:1013E000E05AFC4F10828F5F80935A0380915F0315
:1013F0008F5F80935F030E94090910925A03109235
:101400005F0362C01F3719F0183009F058C080918F
:101410005F03882309F44CC090915A038917E9F4BB
:10142000E0913201F091330188E00995E0913201B9
:10143000F091330180E20995E0913201F09133019E
:1014400088E0099580915A03815080935A038091D6
:101450005F03815080935F0337C0915090935A038C
:10146000815080935F0307C0E82FF0E0E05AFC4F03
:10147000218120838F5F8917B8F30E943B08E09198
:101480003201F091330180E2099510915F0307C0AA
:10149000E0913201F091330188E009951F5F2091BE
:1014A0005A0330E0812F90E0281739078CF70CC0E1
:1014B000E0913201F091330187E0099505C01B31BD
:1014C00019F481E080935E031F91089520E001C02C
:1014D0002F5FE22FF0E0E05AFC4F90819032C1F391
:1014E00090E014C02F5FE22FF0E0E05AFC4F308113
:1014F000332321F03032B1F701C02F5FE22FF0E04B
:10150000E05AFC4F30813032C1F39F5F981758F397
:1015100030E0205A3C4FC9010895DF93CF9300D0AB
:10152000CDB7DEB70E94660ABE016F5F7F4F4AE00B
:1015300050E00E94F3160F900F90CF91DF91089525
:10154000DF93CF9300D0CDB7DEB70E94660ABE010D
:101550006F5F7F4F40E150E00E94F3160F900F90B5
:10156000CF91DF910895882331F485B78C7F85BFB3
:1015700085B7862B85BF0895882321F47093A10237
:101580006093A0020895882321F41092A102109282
:10159000A002089580E00E94C30A08951F920F924E
:1015A0000FB60F9211242F933F934F935F936F9336
:1015B0007F938F939F93AF93BF93EF93FF9380910C
:1015C000A0029091A102009729F0E091A002F09171
:1015D000A1020995FF91EF91BF91AF919F918F91DA
:1015E0007F916F915F914F913F912F910F900FBE1F
:1015F0000F901F90189510920D0410920E041092E7
:101600000F04109210041092850010928400109222
:1016100005041092060410920704109208048BE54A
:1016200091E00E94380F089587EE92E00E94380FF3
:1016300088EC92E00E94380F82E992E00E94380F15
:1016400080E792E00E94380F81E392E00E94380F19
:101650008FEF91E00E94380F8DED91E00E94380FDE
:101660000895EF92FF920F931F9381E00E94A00ACA
:101670007B018C0182E00E94A00AF70160831F9128
:101680000F91FF90EF9008956F927F928F929F92AB
:10169000AF92BF92CF92DF92EF92FF920F931F9380
:1016A000CF93DF9381E00E94A00AA62EC72E82E08E
:1016B0000E94A00A7B018C018C2D6A2CE3016E0133
:1016C000D82EE60199248824839401E711E097E756
:1016D000C92E91E0D92E8EE6A82E81E0B82E4BC0FF
:1016E0008881992009F5ADB7BEB719970FB6F89460
:1016F000BEBF0FBEADBFEDB7FEB7319611968C924F
:10170000D282C1823E0173821482C583168287838E
:1017100010860E941F108DB79EB709960FB6F894D9
:101720009EBF0FBE8DBF15C000D000D00F92EDB789
:10173000FEB73196ADB7BEB711968C921283018376
:10174000838314820E941F100F900F900F900F90B0
:101750000F909394B92DB83069F400D00F92EDB783
:10176000FEB78182B382A2820E941F100F900F9059
:101770000F9099242196EC16FD0608F0B1CF00D009
:101780000F9281E0ADB7BEB711968C9311978BE69F
:1017900091E013969C938E9312970E941F100F90C6
:1017A0000F900F90DF91CF911F910F91FF90EF90CD
:1017B000DF90CF90BF90AF909F908F907F906F9071
:1017C00008959F92AF92BF92CF92DF92EF92FF92D5
:1017D0000F931F9381E00E94A00AFB01A080BB240D
:1017E000CC24DD248AE064E040E020E2860175013B
:1017F0000E947C0F00D00F9299249394EDB7FEB70E
:10180000918289E891E0938382830E941F100F9058
:101810000F900F9080E164E040E020E20E947C0F96
:1018200000D00F92EDB7FEB7918287E891E09383E5
:1018300082830E941F100F900F900F9082E068E04B
:1018400040E020E30E947C0F00D00F92EDB7FEB77E
:10185000918285E891E0938382830E941F10EDB707
:10186000FEB7918283E891E0938382830E941F10E8
:101870000F900F900F901F910F91FF90EF90DF90BE
:10188000CF90BF90AF909F9008958F929F92AF920C
:10189000BF92DF92EF92FF920F931F93CF93DF934C
:1018A00081E00E948D0A862E82E00E948D0A162F0A
:1018B00082EA91E00E94380F0E94B312DC01CB0152
:1018C0002DB73EB7275030400FB6F8943EBF0FBE3D
:1018D0002DBFEDB7FEB73196DD24D394CDB7DEB77B
:1018E000D9822FE931E03283218383839483A583D6
:1018F000B6830E941F10EDB7FEB737960FB6F89467
:10190000FEBF0FBEEDBF80E00E94F50600D000D004
:101910000F92EDB7FEB73196ADB7BEB71196DC9218
:101920002BE931E032832183948383830E941F104B
:101930000F900F900F900F900F9080E00E94F5068F
:1019400000D000D00F92EDB7FEB73196CDB7DEB71D
:10195000D98227E931E032832183948383830E94F3
:101960001F100F900F900F900F900F9081E991E052
:101970000E94380F81229924AA24BB248AE064E0C3
:1019800040E020E2850174010E947C0F00D00F929C
:10199000EDB7FEB7D1828FE891E0938382830E94F6
:1019A0001F100F900F900F9080E164E040E020E264
:1019B0000E947C0F00D00F92ADB7BEB71196DC929B
:1019C00011978DE891E013969C938E9312970E9445
:1019D0001F100F900F900F9082E068E040E020E32E
:1019E0000E947C0F00D00F92CDB7DEB7D9828BE872
:1019F00091E09B838A830E941F100F900F900F909D
:101A0000DF91CF911F910F91FF90EF90DF90BF90EA
:101A1000AF909F908F90089586EA91E00E94380FD2
:101A20000E9494080895EF92FF920F931F93CF9313
:101A3000DF938CE093E00E94380FE0900D04F0906B
:101A40000E0400910F04109110048AE06AE040E057
:101A500020E20E947C0F8AE093E00E94380FE09021
:101A60000504F090060400910704109108048AE030
:101A70006AE040E020E20E947C0F88E093E00E9450
:101A8000380FC4E8D0E0E880F98000E010E08AE098
:101A90006AE040E020E20E947C0F8EEF92E00E941C
:101AA000380F1982188210920504109206041092C1
:101AB000070410920804109201041092020410927C
:101AC0000304109204041092090410920A04109264
:101AD0000B0410920C04DF91CF911F910F91FF9096
:101AE000EF90089582EF92E00E94380F0895809160
:101AF000050490910604A0910704B0910804019692
:101B0000A11DB11D8093050490930604A0930704C2
:101B1000B093080485B192E0892785B908951F9292
:101B20000F920FB60F9211242F933F934F935F9311
:101B30006F937F938F939F93AF93BF93EF93FF9395
:101B400080910D0490910E04A0910F04B0911004A7
:101B50000196A11DB11D80930D0490930E04A093D6
:101B60000F04B09310048091010490910204A0919D
:101B70000304B09104040196A11DB11D80930104DA
:101B800090930204A0930304B0930404883E23E0DE
:101B9000920720E0A20720E0B207D9F4809109045F
:101BA00090910A04A0910B04B0910C040196A11D20
:101BB000B11D8093090490930A04A0930B04B09381
:101BC0000C0410920104109202041092030410926B
:101BD0000404289A0E94130D8FE99FE00197F1F702
:101BE00000C0000085B190E2892785B92898FF914F
:101BF000EF91BF91AF919F918F917F916F915F9185
:101C00004F913F912F910F900FBE0F901F901895FD
:101C10001F920F920FB60F9211242F933F934F9361
:101C20005F936F937F938F939F93AF93BF93EF9344
:101C3000FF9385B190E2892785B90E94720DFF91CB
:101C4000EF91BF91AF919F918F917F916F915F9134
:101C50004F913F912F910F900FBE0F901F901895AD
:101C60001F920F920FB60F9211242F933F934F9311
:101C70005F936F937F938F939F93AF93BF93EF93F4
:101C8000FF930E94770DFF91EF91BF91AF919F91CC
:101C90008F917F916F915F914F913F912F910F9015
:101CA0000FBE0F901F9018950F931F93DF93CF9344
:101CB0000F92CDB7DEB78FEF809300048E010F5FD8
:101CC0001F4F0AC089810E944509C8010E947415EE
:101CD0008823C1F70E942D08809100048823A9F76A
:101CE0000F90CF91DF911F910F910895CF93DF93C4
:101CF0000E944B1560E072EC81E090E00E9431158B
:101D0000CBE6D5E1CE010E94E60E0E94C907CE01C6
:101D10000E94FD070E943B160E94401681E08093BE
:101D20006F0085E08093810010920D0410920E04E4
:101D300010920F04109210041092050410920604E1
:101D400010920704109208048AE08093690083E0EF
:101D50008DBB83E284B92D9A529853985A9A5B9A14
:101D60008FE091E064E17BE00E94DE0784E191E096
:101D700061E37BE00E94DE0789E191E061EE7BE0B8
:101D80000E94DE078EE191E064E47BE00E94DE07C2
:101D900083E291E065E47CE00E94DE0788E291E066
:101DA0006CE07DE00E94DE078CE291E06BEF7AE070
:101DB0000E94DE070E940C0D8DE00E9445090E94E2
:101DC000540E80E090E0DF91CF9108959093A302AC
:101DD0008093A20208951F93182F8A3031F4E09166
:101DE000A202F091A3028DE00995E091A202F09188
:101DF000A302812F09951F910895CF93DF93009738
:101E000039F0EC0102C00E94EB0E89918823D9F7CA
:101E1000DF91CF910895EF92FF920F931F93CF938D
:101E2000DF937A010097E9F0FC0180E090E0EF0198
:101E30008617970718F000E010E010C02191EF011D
:101E400001962223A1F7F7CF8881882311F02196EC
:101E500001C080E20E94EB0E0F5F1F4F0E151F05A1
:101E600098F3DF91CF911F910F91FF90EF9008951C
:101E7000CF93DF93EC01009719F407C00E94EB0E9B
:101E8000FE01219684918823C9F7DF91CF910895AF
:101E90008AE00E94EB0E0895E82FF0E0EF70F070FA
:101EA000EC5EFC4F84910E94EB0E08951F93182F57
:101EB00082958F700E944C0F812F0E944C0F1F91B2
:101EC00008951F93182F892F0E94560F812F0E946B
:101ED000560F1F910895EF92FF920F931F937B016E
:101EE0008C01C8010E94610FC7010E94610F1F9100
:101EF0000F91FF90EF9008952F923F924F925F9233
:101F00007F928F929F92AF92BF92CF92DF92EF9289
:101F1000FF920F931F93DF93CF93CDB7DEB7A297B6
:101F20000FB6F894DEBF0FBECDBF282E862E942E9E
:101F3000722E57016801442351F017FF08C066272D
:101F40007727CB016E197F09800B910B02C0C60168
:101F5000B50118A2332444245524A20191010E9402
:101F6000D1166F7070706C5E7C4FFB0164916F8F47
:101F7000B901CA018E01025E1F4F382D315021E098
:101F8000992009F420E0321BA801431B51095AA3F0
:101F900049A318C0611571058105910579F0A20169
:101FA00091010E94D1166F7070706C5E7C4FFB01C6
:101FB0006491F8016083B901CA0102C0F80170821E
:101FC0000150104078010894E11CF11C29A13AA1AC
:101FD00002171307F9F69920C1F0D7FE03C0780164
:101FE0008DE20AC0A114B104C104D10419F0780132
:101FF0008BE202C0780180E2F701808306C0F7011E
:1020000081917F010E94EB0E8A948820C1F7A296ED
:102010000FB6F894DEBF0FBECDBFCF91DF911F91F9
:102020000F91FF90EF90DF90CF90BF90AF909F9077
:102030008F907F905F904F903F902F9008954F9298
:102040005F926F927F928F929F92AF92BF92CF9248
:10205000DF92EF92FF920F931F93DF93CF930F9234
:10206000CDB7DEB75C88ED88FE8857E1C52ED12C50
:10207000CC0EDD1E4AE0642E712C1AC08823A1F418
:1020800080E090E00F90CF91DF911F910F91FF9032
:10209000EF90DF90CF90BF90AF909F908F907F9008
:1020A0006F905F904F9008950E94EB0E560165016E
:1020B00097012F5F3F4F552021F0F701790184915F
:1020C00003C0F701808179018532C1F62F5F3F4F50
:1020D000552021F0F7017901849103C0F701808137
:1020E0007901843629F0883781F08336E9F606C015
:1020F0003AE0832E912C00E117E20CC0F6018081BA
:1021000022E030E0C20ED31ECFCF20E1822E912CF0
:1021100000E010E192E0A92EB12CAC0CBD1CF60140
:10212000C080D1808436A9F4D7FE10C0D094C19469
:10213000D108D3948DE20E94EB0E08C0C801B30110
:102140000E94BD168B016230710518F0C016D106D1
:10215000A8F3C601B8010E94BD16482E862F9983A8
:102160000E944C0FC42C9981D92EC801B4010E9441
:10217000BD168B016115710561F799CF86E084B9B1
:1021800087E085B980E593EC0E94F61282E00E9418
:10219000AB110E9413130E941C1388EB9BE00E945A
:1021A000441388EB9BE00E94491308958854944F90
:1021B00021E0843F92072CF027E28131920724F43A
:1021C00005C084EF91E002C080E197E261157105DE
:1021D00001F527C020918A0030918B008217930768
:1021E00038F420918A0030918B002150304006C095
:1021F00020918A0030918B002F5F3F4F30938B00EE
:1022000020938A0020918A0030918B00281739078B
:1022100061F020918A0030918B0028173907D1F6A0
:10222000089590938B0080938A00089586E084B986
:1022300087E085B989E09DE30E94F61285E00E945F
:10224000AB110E94131380E090E00E9444130895A4
:10225000009731F02DE38930920710F089E09DE37B
:102260000E944413089588E284B9229A3C9A2498E3
:1022700086ED8CBD08952A9808952A9A08950E94A3
:102280003D118FE99FE00197F1F700C000000E9427
:102290003B1108958EBD0DB407FEFDCF08950DB41A
:1022A00007FEFDCF8EB508950895813039F0813055
:1022B00028F1823061F0833009F512C080916E0000
:1022C000877F80936E0080916E008D7F11C080911A
:1022D0006E00877F80936E0080916E00826016C0D2
:1022E00080916E00877F80936E0080916E00826087
:1022F00080936E0080916E0081600DC080916E00B1
:10230000877F80936E0080916E008D7F80936E003A
:1023100080916E008E7F80936E0080916E0082604F
:1023200080936E00A99A089595B5987F982B95BDD6
:10233000089582E00E94941116BCEEE6F0E08081E0
:102340008160808310921104109212041092130481
:10235000109214040895E1E8F0E09081987F982BA2
:102360009083089581E00E94AB1110928500109235
:102370008400EFE6F0E08081816080830895E1EBE6
:10238000F0E09081987F982B9083089584E00E94DC
:10239000BF111092B200E0E7F0E08081816080839D
:1023A0001092190410921A0410921B0410921C042B
:1023B0000895E5B5F0E0E770F070EE0FFF1FEB5DFC
:1023C000FC4F25913491C9010895E0918100F0E01E
:1023D000E770F070EE0FFF1FEB5DFC4F259134911D
:1023E000C9010895E091B100F0E0E770F070EE0FE0
:1023F000FF1FEF5CFC4F25913491C90108958A308D
:1024000040F4E82FF0E0EE0FFF1FEC55FD4F718315
:10241000608308958A3040F4E82FF0E0EE0FFF1F4C
:10242000EC55FD4F1182108208951F9310E0812F0B
:102430000E940A121F5F1A30D1F70E9499110E9460
:10244000B2110E94C61178941F910895DF92EF9205
:10245000FF920F931F93CF93DF93EC01D6B41092AA
:1024600015041092160410921704109218040E947A
:10247000D9119C0140E050E060E074E284EF90E00C
:102480000E94D11679018A01293B8DE8380786E040
:10249000480780E0580790F487E2C131D80770F40C
:1024A0009E0140E050E0C801B7010E949E1628EE50
:1024B00033E040E050E00E94D11627C0C801B701C8
:1024C00028EE33E040E050E00E94D11679018A0105
:1024D0009E0140E050E0C801B7010E949E169B019A
:1024E000AC0113C08091150490911604A0911704BB
:1024F000B091180483B7817F83BF83B7816083BFA6
:10250000889583B78E7F83BF04C02D0D311D411D7B
:10251000511DE0901504F0901604009117041091DD
:10252000180486B590E0A0E0B0E0102F0F2DFE2C2F
:10253000EE248E299F29A02BB12B82179307A40785
:10254000B50780F2DF91CF911F910F91FF90EF902F
:10255000DF90089510921104109212041092130447
:1025600010921404089520911104309112044091A6
:10257000130450911404B901CA010895109219046A
:1025800010921A0410921B0410921C0408952091BA
:10259000190430911A0440911B0450911C04B90194
:1025A000CA010895893049F4809180008260809347
:1025B0008000809180008E7F0EC08A3021F480914F
:1025C0008000826003C0809180008D7F80938000B6
:1025D0008091800081608093800010928900109229
:1025E000880010928B0010928A000895E0E8F0E0D5
:1025F00020812E7F2083208122602083E1E8F0E08B
:10260000208128602083208120612083909387008F
:1026100080938600109289001092880010928B009F
:1026200010928A000895E0E8F0E08081806880835D
:1026300080818F7B80830895E0E8F0E08081806274
:10264000808380818F7E80830895E0E8F0E0808140
:102650008F77808380818F7B80830895E0E8F0E02E
:1026600080818F7D808380818F7E80830895E0E8E4
:10267000F0E080818D7F808380818E7F80830E94C7
:1026800025130E942E13089590938900809388004B
:10269000089590938B0080938A000895E0EBF0E01A
:1026A00080818068808380818F7B8083808181604E
:1026B0008083808182608083E1EBF0E08081877F8E
:1026C00080830895E0EBF0E08081806280838081E8
:1026D0008F7E80830895E0EBF0E080818F778083A8
:1026E00080818F7B808308958093B30008958093C9
:1026F000B40008951F920F920FB60F9211242F93DA
:102700003F934F935F936F937F938F939F93AF9379
:10271000BF93EF93FF938091110490911204A091C5
:102720001304B09114040196A11DB11D80931104EE
:1027300090931204A0931304B09314048091150491
:1027400090911604A0911704B09118040196A11D50
:10275000B11D8093150490931604A0931704B093B1
:1027600018048091A4029091A502009729F0E091AD
:10277000A402F091A5020995FF91EF91BF91AF914D
:102780009F918F917F916F915F914F913F912F9189
:102790000F900FBE0F901F9018951F920F920FB6BB
:1027A0000F9211242F933F934F935F936F937F93D7
:1027B0008F939F93AF93BF93EF93FF9380911904EF
:1027C00090911A04A0911B04B0911C040196A11DC4
:1027D000B11D8093190490931A04A0931B04B09325
:1027E0001C048091B2029091B302009729F0E0910D
:1027F000B202F091B3020995FF91EF91BF91AF91B1
:102800009F918F917F916F915F914F913F912F9108
:102810000F900FBE0F901F9018951F920F920FB63A
:102820000F9211242F933F934F935F936F937F9356
:102830008F939F93AF93BF93EF93FF938091A602E3
:102840009091A702009729F0E091A602F091A702CB
:102850000995FF91EF91BF91AF919F918F917F91DA
:102860006F915F914F913F912F910F900FBE0F90FD
:102870001F9018951F920F920FB60F9211242F934D
:102880003F934F935F936F937F938F939F93AF93F8
:10289000BF93EF93FF938091A8029091A9020097B4
:1028A00029F0E091A802F091A9020995FF91EF911A
:1028B000BF91AF919F918F917F916F915F914F9158
:1028C0003F912F910F900FBE0F901F9018951F9260
:1028D0000F920FB60F9211242F933F934F935F9354
:1028E0006F937F938F939F93AF93BF93EF93FF93D8
:1028F0008091AC029091AD02009729F0E091AC027A
:10290000F091AD020995FF91EF91BF91AF919F9129
:102910008F917F916F915F914F913F912F910F9088
:102920000FBE0F901F9018951F920F920FB60F9227
:1029300011242F933F934F935F936F937F938F93C4
:102940009F93AF93BF93EF93FF938091AE029091CB
:10295000AF02009729F0E091AE02F091AF02099525
:10296000FF91EF91BF91AF919F918F917F916F9167
:102970005F914F913F912F910F900FBE0F901F903D
:1029800018951F920F920FB60F9211242F933F9319
:102990004F935F936F937F938F939F93AF93BF9367
:1029A000EF93FF938091B0029091B102009729F0CC
:1029B000E091B002F091B1020995FF91EF91BF91C2
:1029C000AF919F918F917F916F915F914F913F91C7
:1029D0002F910F900FBE0F901F9018951F920F927E
:1029E0000FB60F9211242F933F934F935F936F93E2
:1029F0007F938F939F93AF93BF93EF93FF938091B8
:102A0000B4029091B502009729F0E091B402F091E0
:102A1000B5020995FF91EF91BF91AF919F918F9171
:102A20007F916F915F914F913F912F910F900FBECA
:102A30000F901F9018958EE194E06AEB72E040E4ED
:102A400050E00E942D0787E294E06AEF72E040E4D4
:102A500050E00E942D0708959093B9028093B80228
:102A600008959B01AC0182E08093C00088E98093C7
:102A7000C10083E0220F331F441F551F8A95D1F7F1
:102A800060E074E284EF90E00E94D1162150209320
:102A9000C400789408950E941B151092B9021092F8
:102AA000B80288ED8093C10060E072EC81E090E0B4
:102AB0000E9431158FEF80931D041092260410920E
:102AC000300410922F04789408958EE194E00895D4
:102AD00087E294E008959091C00095FFFCCF809329
:102AE000C60010921D040895CF93DF93EC018091EE
:102AF000200490912104009769F080912204909124
:102B00002304009739F08EE194E00E943A0788830D
:102B10008FEF01C080E0DF91CF910895DF93CF93D5
:102B20000F92CDB7DEB7CE0101960E9474158823AF
:102B300019F0298130E002C02FEF3FEFC9010F905B
:102B4000CF91DF91089510922304109222040895EA
:102B50008091220490912304009711F48FEF08953F
:102B600080E00895682F87E294E00E94920708951C
:102B70008FEF8093260487E294E00E943A070E9438
:102B80006B1508951F920F920FB60F9211242F9379
:102B90003F934F935F936F937F938F939F93AF93E5
:102BA000BF93EF93FF9380912604882379F080915F
:102BB0002B0490912C04009739F087E294E00E9456
:102BC0003A078093C60005C0109226048FEF8093C9
:102BD0001D04FF91EF91BF91AF919F918F917F91D4
:102BE0006F915F914F913F912F910F900FBE0F907A
:102BF0001F9018951F920F920FB60F9211242F93CA
:102C00003F934F935F936F937F938F939F93AF9374
:102C1000BF93EF93FF936091C6002091B80230916B
:102C2000B9022115310539F0E091B802F091B902ED
:102C3000862F09950FC08EE194E00E9492078823A9
:102C400049F480912F0490913004019690933004C0
:102C500080932F04FF91EF91BF91AF919F918F913E
:102C60007F916F915F914F913F912F910F900FBE88
:102C70000F901F90189583E693E00E94380F0895F7
:102C80008EE593E00E94380F089500D000D00F9297
:102C9000EDB7FEB7319691E0ADB7BEB711969C93F4
:102CA00028E533E032832183838314820E941F103E
:102CB0000F900F900F900F900F900895882349F078
:102CC00000D00F9281E0EDB7FEB7818381E593E0FC
:102CD00008C000D00F9281E0EDB7FEB781838AE48F
:102CE00093E0938382830E941F100F900F900F90A8
:102CF00008952DB73EB7275030400FB6F8943EBF29
:102D00000FBE2DBFEDB7FEB7319691E0ADB7BEB7A0
:102D100011969C9321E433E03283218383831482D0
:102D2000658316820E941F102DB73EB7295F3F4F63
:102D30000FB6F8943EBF0FBE2DBF0895629FD0011D
:102D4000739FF001829FE00DF11D649FE00DF11D66
:102D5000929FF00D839FF00D749FF00D659FF00D15
:102D60009927729FB00DE11DF91F639FB00DE11D02
:102D7000F91FBD01CF0111240895AA1BBB1B51E10E
:102D800007C0AA1FBB1FA617B70710F0A61BB70BDB
:102D9000881F991F5A95A9F780959095BC01CD0180
:102DA0000895A1E21A2EAA1BBB1BFD010DC0AA1F8C
:102DB000BB1FEE1FFF1FA217B307E407F50720F0A4
:102DC000A21BB30BE40BF50B661F771F881F991F1F
:102DD0001A9469F760957095809590959B01AC0168
:102DE000BD01CF0108952F923F924F925F927F9243
:102DF0008F929F92AF92BF92CF92DF92EF92FF920B
:102E00000F931F93CF93DF934B01EA016115710577
:102E100019F0FB0180839183209739F09E012250A5
:102E200030402332310508F0F4C0A82EB92EF50148
:102E300011915F017F01812F90E00E94201800977F
:102E4000B1F71D3229F4F50111917F0101E006C0AF
:102E50001B3219F4F50111917F0100E0209719F060
:102E6000C031D105B9F4103381F4F701808188377E
:102E700011F0883551F4F701118182E090E0E80EFD
:102E8000F91E0260C0E1D0E005C0209719F41033AC
:102E9000C1F422C0C830D105F9F0C930D10524F4FD
:102EA000C230D10509F507C0CA30D10551F0C03193
:102EB000D105D1F427C0A12CB12CC12CF0E4DF2E18
:102EC00026C0CAE0D0E0ECECAE2EECECBE2EECEC72
:102ED000CE2EECE0DE2E1BC0C8E0D0E0A12CB12C41
:102EE000C12C70E1D72E13C09E01442737FD4095B9
:102EF000542F60E070E080E090E80E94D116590104
:102F00006A0105C0A12CB12CC12C68E0D62E40E08E
:102F100060E070E0CB011E01442437FC4094542C47
:102F200050ED752E710EE72DEA3070F0212F2154EF
:102F30002A3118F439EC732E06C0212F21562A317C
:102F400030F529EA722E710E272D30E02C173D073F
:102F5000F4F447FD18C0A616B706C806D90680F0D7
:102F6000A20191010E949E16670D711D811D911D88
:102F70006130F0E07F07F0E08F07F0E89F0710F086
:102F80004FEF01C041E0F70111917F01C9CF8114DA
:102F9000910491F0442339F00894E108F108F40118
:102FA000F182E08209C001FF1BC09701225030402E
:102FB000F4013183208314C047FF12C000FF05C015
:102FC00060E070E080E090E804C06FEF7FEF8FEF8B
:102FD0009FE722E230E0309332042093310416C0A0
:102FE00000FF08C090958095709561957F4F8F4F39
:102FF0009F4F0CC097FF0AC082E290E0909332048A
:10300000809331046FEF7FEF8FEF9FE79B01AC015F
:1030100003C020E030E0A901B901CA01DF91CF91DE
:103020001F910F91FF90EF90DF90CF90BF90AF90E6
:103030009F908F907F905F904F903F902F9008953A
:1030400091113CC0803219F089508550D0F7089515
:10305000FB01DC0101900D920020E1F70895FB01D6
:10306000DC014150504030F08D910190801919F4ED
:103070000020B9F7881B990B0895F999FECF92BDEE
:1030800081BDF89A992780B50895A8E1B0E042E0A3
:1030900050E00C946318262FF999FECF1FBA92BD09
:1030A00081BD20BD0FB6F894FA9AF99A0FBE019629
:1030B00008950E944B18272F0C944C1899278827A5
:1030C0000895DC01CB01FC01F999FECF06C0F2BDE9
:1030D000E1BDF89A319600B40D9241505040B8F7D6
:0630E0000895F894FFCFF3
:1030E6003C535041443E003C2F535041443E0068FF
:1030F600656C7000706F6B65007065656B0064755C
:103106006D7000746573740069646E007265736532
:02311600740043
:00000001FF
