:100000000C9407040C9424040C9424040C942404ED
:100010000C9424040C9424040C9424040C94031DC8
:100020000C9424040C94E21B0C94D61C0C947C1CA1
:100030000C94A91C0C94B51B0C94221C0C944F1C02
:100040000C94621B0C9424040C940F1E0C94240436
:100050000C94D71D0C9472090C9424040C94240461
:100060000C9424040C94240425642E004445565F0B
:100070004E4F545F464F554E44002D002D003032F8
:1000800020745F726561645F736C6F7420203A2026
:1000900025640A00303220745F726561645F7361A9
:1000A0006D7020203A2025640A00303220745F777A
:1000B000726974655F736C6F74203A2025640A005E
:1000C000303220745F77726974655F6C6F772020BF
:1000D0003A2025640A00303220745F7265736574BB
:1000E0005F72782020203A2025640A003032207484
:1000F0005F72657365745F74782020203A202564F0
:100100000A00303120745F636F6E7620202020203B
:1001100020203A2025640A004444313878323020C7
:1001200054696D696E670A002E00256400636D6472
:100130003E00636D646C696E653A2000636F6D6D9F
:10014000616E64206E6F7420666F756E64000D0AB8
:10015000000D0A0020307825780030782578257841
:100160002030782578000A00090009000900223EA5
:100170002564000A005D3C2F6A736F6E3E000A0022
:100180003C6A736F6E3E5B007465726D696E616C84
:10019000202868756D616E206579652066726965D5
:1001A0006E646C79290A004A534F4E20286A736F97
:1001B0006E2070617273657220667269656E646C20
:1001C00079290A005365745072696E744F757470A2
:1001D00075744D6F64653A20003C2F44494F5F6C45
:1001E0006162656C3E0A003C2F25643E0A003C2596
:1001F000643E000A3C44494F5F6C6162656C3E0A94
:10020000003C2F4144435F6C6162656C3E0A003CD8
:100210002F25643E0A003C25643E000A3C414443CD
:100220005F6C6162656C3E0A00496E76616C696460
:100230002073796E7461783A206C6162656C205B22
:100240006164637C64696F5D206465764E756D20C2
:100250006C6162656C5F746578740D0A00496E7636
:10026000616C696420646576696365206E756D6292
:10027000657200496E76616C6964206465766963B5
:1002800065206E756D626572000900090009003C09
:100290002F743E0A00202564002025640025640098
:1002A0003C743E00536176696E6720746F20524F34
:1002B0004D2E0A003C2F524F4D3E0A003C2F523E1D
:1002C0000A003C5220693D222564223E000A3C522D
:1002D0004F4D3E0A00435243204572726F723B20DD
:1002E0000020430A002C005D002000222C005B222D
:1002F000003C6A736F6E3E5B22646F6F722D737782
:100300002D3031222C2025645D3C2F6A736F6E3EA8
:100310000D0A005D2C002564003A200900272C00FE
:100320005B2700496E697441326428290A003C6ADF
:10033000736F6E3E5B25645D3C2F6A736F6E3E008B
:100340003C6A736F6E3E5B25645D3C2F6A736F6E13
:100350003E003D20256400746F67676C650050495E
:100360004E202564203D20300050494E2025642039
:100370003D20300050494E202564203D2031005062
:100380004F525420432000504F52542042200050DE
:100390004F525420442000227D00226669726D77FE
:1003A000617265223A2200222C227365725F6E759B
:1003B0006D223A25642C007B226C6162656C223AC6
:1003C000220041726475696E6F20333238502044C8
:1003D0004151205631332E30352E31302C20427988
:1003E00020416E64727A656A20426F726F77696528
:1003F000630074657374202020202020203A20742C
:100400006573742066756E6374696F6E0A00746537
:100410006D70205B6465765D203A207072696E7441
:10042000732074656D7065726174757265730A000E
:1004300073617665202020202020203A2073617689
:10044000652064657669636520494420746F207275
:100450006F6D0A0070696E20202020202020203A35
:10046000206765742F736574207374617465206FE1
:10047000662070696E206F6E20706F72742042204B
:1004800043206F7220440A006D6F6465205B30204A
:10049000315D203A20736574207072696E74206D2E
:1004A0006F64653A2030202D207465726D696E612D
:1004B0006C2031202D204A534F4E0A006C6162653A
:1004C0006C2020202020203A2061737369676E2001
:1004D00073656E736F72206C6162656C0A0064658F
:1004E00076205B6C6F635D20203A20736176652017
:1004F000646576696365206C6F636174696F6E20F3
:10050000746F20726F6D0A006370205B70696E5D9E
:100510002020203A206368616E67652074686572E8
:100520006D6F6D657465722070696E0A005A2020C7
:1005300020202020202020203A207072696E742014
:10054000616C6C2073656E736F7220726561646993
:100550006E67730A0A0050202020202020202020CF
:10056000203A207072696E742073656E736F72200A
:100570006465736372697074696F6E0A005320203A
:1005800020202020202020203A207072696E7420C4
:100590006C61737420636F6E74656E7473206F6624
:1005A000206C61737420736372617463687061643A
:1005B0000A0052202020202020202020203A2072D3
:1005C0006561647320726F6D206F66206769766560
:1005D0006E206465766963650A004D202020202026
:1005E00020202020203A20746F67676C6573207389
:1005F000747265616D696E67206D6F6465206F6EE2
:1006000020616E64206F66660A004E202020202044
:1006100020202020203A207072696E742064657654
:10062000696365206E756D6265720A004C2020203A
:10063000202020202020203A20646973706C61798A
:1006400020616C6C2044533138323020726F6D2041
:10065000636F6E74656E740A00492020202020208C
:10066000202020203A207072696E747320646576B1
:1006700069636520494420616E6420766572736900
:100680006F6E20696E666F0A0048202020202020AF
:10069000202020203A207072696E742068656C708A
:1006A0000A0044202020202020202020203A2072F0
:1006B000657475726E732076616C7565206F662047
:1006C000706F727420440A004320202020202020D4
:1006D0002020203A20636C656172207465726D6918
:1006E0006E616C2073637265656E0A004220202083
:1006F000202020202020203A2072657475726E73AD
:100700002076616C7565206F6620706F7274204270
:100710000A0041202020202020202020203A207282
:10072000657475726E7320616C6C20613264206335
:1007300068616E6E656C730A0041726475696E6FF4
:100740002044415120636F6D6D616E64733A0A00FD
:100750005D7D002254656D706572617475726522ED
:100760003A5B002C0022506F727444223A002C0035
:1007700022506F727442223A002C007B2244617135
:10078000426F617264223A003C54494D4552302018
:100790004F56462052455345543E0A0073747265C5
:1007A000616D696E67203D2025640A007D0A007B2B
:1007B00022446171426F617264223A0030313233F7
:1007C000343536373839414243444546000000014C
:1007D00000080040000001000400000100080020A3
:1007E0000040008000000100041B5B25643B256481
:1007F00048001B5B3F32356C001B5B3F32356800A5
:100800001B5B25646D001B5B324A001B63001124D7
:100810001FBECFEFD8E0DEBFCDBF11E0A0E0B1E05A
:10082000E4E2F1E402C005900D92AE37B107D9F7CA
:1008300014E0AEE7B1E001C01D92AF36B107E1F7B9
:100840000E941B160C9490200C940000E2E8F3E048
:10085000119283E0EB38F807D9F710928B031092CE
:100860008C0310928D0310928E0310928F031092BE
:100870009003109291031092920310929603219A82
:10088000299A80E090E00E946A20909398038093D8
:10089000970382E090E00E946A2090939A038093ED
:1008A000990384E090E00E946A2090939C038093D7
:1008B0009B0386E090E00E94622080939D0387E086
:1008C00090E00E94622080939E0388E090E00E9466
:1008D000622080939F0389E090E00E9462208093D1
:1008E000A003089580939603089502C00000019725
:1008F0000097E1F708951F93CF93DF93219A35B1C5
:10090000C1E0D0E0CE010090960302C0880F991F8D
:100910000A94E2F7282F2095232325B924B1282B08
:1009200024B98091990390919A030E94750424B18F
:10093000CE010090960302C0880F991F0A94E2F737
:100940008095822384B982E090E00E94750483B18F
:100950000090960302C0CC0FDD1F0A94E2F78C23AF
:1009600083B913B180919B0390919C030E947504FD
:10097000812FDF91CF911F9108951F93CF93DF9324
:10098000182F95B1C1E0D0E09E010090960302C0FF
:10099000220F331F0A94E2F7822F8095892385B9AD
:1009A00084B1822B84B980919D0390E00E947504EC
:1009B000112369F094B10090960302C0CC0FDD1FA3
:1009C0000A94E2F79E012095822F892384B98091B1
:1009D0009E0390E00E94750424B181E090E00090B5
:1009E000960302C0880F991F0A94E2F7809582232C
:1009F00084B9DF91CF911F910895CF93DF93299808
:100A000025B181E090E00090960302C0880F991F05
:100A10000A94E2F7382F3095232325B924B1282BE7
:100A200024B984B1832384B980919F0390E00E940C
:100A30007504299A83B1C82FD0E00090960302C0B4
:100A4000D595C7950A94E2F7C170D0708091A00344
:100A500090E00E9475048C2FDF91CF9108950F9341
:100A60001F93F89410E008E007C00E94FD048795EA
:100A7000882787951695182B0150B8F77894812F01
:100A80001F910F9108950F931F93082FF89418E06A
:100A900005C0802F81700E94BD0406951150C8F7D3
:100AA00078941F910F910895EF92FF920F931F93E7
:100AB000CF93DF9380E091E00E94E516C2E8D3E097
:100AC000E990FF2400E010E08AE064E040E020E2EA
:100AD0000E94641783E0CB38D80791F787E091E054
:100AE0000E94E516DF91CF911F910F91FF90EF903B
:100AF0000895CF92DF92EF92FF920F931F93CF93BF
:100B0000DF93CBE8D3E0DD24CC24C3948AE2E82E43
:100B100081E0F82E08E211E0899100D000D00F9218
:100B2000EDB7FEB73196ADB7BEB71196CC92F28253
:100B3000E182838314820E9407180F900F900F9018
:100B40000F900F90BD2DB73061F000D00F92EDB730
:100B5000FEB7C182138302830E9407180F900F9083
:100B60000F90D394FD2DF830B9F6DF91CF911F91FE
:100B70000F91FF90EF90DF90CF9008951F9300D0DA
:100B80000F9211E0ADB7BEB711961C93119788E193
:100B900091E013969C938E9312970E94071800D0B1
:100BA000EDB7FEB73196ADB7BEB711961C9382E094
:100BB00091E092838183809197039091980394832D
:100BC00083830E940718EDB7FEB73196ADB7BEB765
:100BD00011961C938CEE90E092838183809199030F
:100BE00090919A03948383830E940718EDB7FEB710
:100BF0003196ADB7BEB711961C9386ED90E0928307
:100C0000818380919B0390919C03948383830E94B2
:100C10000718EDB7FEB73196ADB7BEB711961C9366
:100C200080EC90E09283818380919D038383148282
:100C30000E940718EDB7FEB73196ADB7BEB7119653
:100C40001C938AEA90E09283818380919E03838340
:100C500014820E940718EDB7FEB73196ADB7BEB744
:100C600011961C9384E990E09283818380919F0385
:100C7000838314820E940718EDB7FEB73196ADB793
:100C8000BEB711961C938EE790E09283818380918A
:100C9000A003838314820E9407180F900F900F9077
:100CA0000F900F901F910895F8948430D9F08530FB
:100CB00038F4823079F0833090F4813001F507C048
:100CC0008630B1F0863088F08730C9F414C080E0F7
:100CD00090E002C082E090E00E94882010C084E092
:100CE00090E0FACF86E090E008C087E090E005C091
:100CF00088E090E002C089E090E00E947A200E94A3
:100D00002604789408950F931F93CF93DF93F8945C
:100D10000BE813E0C82FD0E093E0CC0FDD1F9A95CD
:100D2000E1F7C65FDF4FF80161918F01CE010E94AC
:100D30007A202196F3E003391F07A9F77894DF9111
:100D4000CF911F910F910895282F392FD901EBE8EA
:100D5000F3E08D91819383E0E439F807D1F70895AA
:100D6000CF93DF9380918B03882321F48CEC0E9436
:100D700043050CC085E50E944305CBE8D3E089918B
:100D80000E94430583E0C339D807C9F7DF91CF91AB
:100D900008958CEC0E94430584E40E944305089565
:100DA00098E028E1362F382730FD02C0669503C051
:100DB000622766956068915011F08695F3CF862F73
:100DC0000895AF92BF92DF92EF92FF920F931F931D
:100DD000DF93CF930F92CDB7DEB77C015B01FB01B0
:100DE00010828C01DD240CC0F80181918F01F50186
:100DF000608149830E94D006F5018083D3944981A4
:100E0000D41690F3F701E40FF11D81E02081F50184
:100E10009081291380E00F90CF91DF911F910F9166
:100E2000FF90EF90DF90BF90AF900895EF92FF9208
:100E30000F931F93DF93CF930F92CDB7DEB7E82EBA
:100E40000E94B0068EEB0E94430502E813E0FF24E7
:100E500006C00E942F05F80181938F01F394FE14C0
:100E6000C0F319824E2D415082E893E0BE016F5FBE
:100E70007F4F0E94E1060F90CF91DF911F910F915C
:100E8000FF90EF900895DF92EF92FF920F931F93E0
:100E9000CF93DF93EC0187EE93E0998388838FE013
:100EA00097E29B838A830E947B0489E00E94160755
:100EB000D82E882309F4CEC080918B03803109F0AD
:100EC0008FC03091830320E08091820390E0822BD9
:100ED000932B9983888320918303959587952F3F42
:100EE000A1F599838883409188034C3068F050E0E5
:100EF00021E732E0429FC001439F900D529F900D29
:100F000011248C549D4169C0019699838883609116
:100F1000880370E041E752E0649F9001659F300DC7
:100F2000749F300D11242C53364F3B832A83009736
:100F300009F090C000D00F9281E0ADB7BEB7119616
:100F40008C9311978CE790E07CC0998388834091C3
:100F500088034D30B0F10197998388838091820393
:100F600040918803882301F550E021E732E0429F59
:100F7000C001439F900D529F900D11248C549D41B0
:100F80009B838A8319821882809188038D3008F4AC
:100F900061C000D00F9281E0EDB7FEB781838AE790
:100FA00090E09383828351C050E02FE83DEF429F51
:100FB000C001439F900D529F900D1124845A9B4B6A
:100FC0000CC050E02FE83DEF429FC001439F900DC1
:100FD000529F900D1124845B924E9B838A833AC06A
:100FE000883229F53091830320E08091820390E0DC
:100FF000822B932B24E0959587952A95E1F7998389
:1010000088833091830320E08091820390E0822BDB
:10101000932B8F70907041E752E0849F9001859FE1
:10102000300D949F300D11243B832A8313C000D0D0
:101030000F9281E0ADB7BEB711968C9311978CE6F5
:1010400090E013969C938E9312970E9407180F902E
:101050000F900F9000D000D00F92EDB7FEB73196F1
:1010600081E0ADB7BEB711968C9388E690E092838D
:10107000818388819981948383830E9407180F90CC
:101080000F900F900F900F90EA80FB800027F7FCE5
:101090000095102F8AE064E040E020E30E9464178E
:1010A0008D2DDF91CF911F910F91FF90EF90DF90E9
:1010B00008950F931F93DF93CF930F92CDB7DEB7B1
:1010C00019820E947B048CEC0E9443050E947B04E1
:1010D00083E30E9443050BE813E00E942F05F8010B
:1010E00081938F01F3E003391F07B9F7C80108970F
:1010F000BE016F5F7F4F47E00E94E1060F90CF91E6
:10110000DF911F910F910895EF92FF920F931F931C
:10111000DF93CF930F92CDB7DEB7082F10E053E0E7
:10112000000F111F5A95E1F7065F1F4F4BE8E42EA1
:1011300043E0F42EC8010E946220F70181937F01F1
:101140000F5F1F4FF3E9EF16F3E0FF0699F7C701B2
:101150000897BE016F5F7F4F47E00E94E1060F9046
:10116000CF91DF911F910F91FF90EF900895CF9352
:10117000DF93EB0127EE33E0398328832FE037E25A
:101180003B832A830E948408882389F10E947B0480
:101190000E94C9068FEF93ECA9E081509040A040D7
:1011A000E1F700C000000E947B0489E00E9416075E
:1011B0008823F1F05091830340E02091820330E0D6
:1011C000242B352B35952795398328836091880307
:1011D00070E04FE85DEF649F9001659F300D749F54
:1011E000300D1124205F384D3B832A8301C080E0FD
:1011F000DF91CF910895EAE7F0E08081877F8083D7
:1012000080818F7780830895EAE7F0E09081987F6E
:10121000982B90830895ECE7F0E090818295880FF9
:10122000880F807C9F73892B80830895CF93DF93F1
:10123000CAE7D0E088818068888388818F7D888331
:1012400086E00E94040981E00E940B09ECE7F0E0CF
:1012500080818F7D80838881886088831092A1033C
:101260007894DF91CF910895ECE7F0E090818F7151
:10127000907E892B80830895EAE7F0E08081806189
:101280008083808180648083089580917A00807457
:1012900008951092A10390917C008F71907E892B0C
:1012A00080937C0080917A00806180937A008091A5
:1012B0007A00806480937A0080917A0086FDFCCF6A
:1012C0002091780030917900932F80E030E0282B36
:1012D000392BC90108950E944909969587959695DD
:1012E000879508951F920F920FB60F9211248F9336
:1012F0008FEF8093A1038F910F900FBE0F901F90DF
:101300001895FC018FB7F8947183608353834283EF
:1013100017821682158214828FBF0895FC019FB731
:10132000F8944481558141155105C9F026813781D2
:10133000A081B181A20FB31F8C912F5F3F4F3783E4
:101340002683628173812617370720F0261B370B0F
:1013500037832683415050405583448301C080E049
:101360009FBF0895FC01AFB7F894248135816217BF
:101370007307A0F486819781860F971F97838683D2
:10138000428153818417950720F0841B950B978326
:101390008683261B370B3583248302C01582148273
:1013A000AFBF0895FC01CB012FB7F8944681578158
:1013B000840F951F628173810E94D21E0190F0817B
:1013C000E02DE80FF91F80812FBF08951F93FC01C6
:1013D000162F4FB7F894A481B58122813381A217CB
:1013E000B307A0F4868197818A0F9B1FB9010E94E1
:1013F000D21EA081B181A80FB91F1C938481958151
:101400000196958384834FBF8FEF02C04FBF80E06A
:101410001F910895FC014FB7F89422813381848194
:101420009581281B390B4FBFC90108952FB7F89438
:10143000FC01158214822FBF08951092A60310920A
:10144000A2031092A7031092A4031092A303109278
:10145000A50308951F93CF93DF939C01EB01109197
:10146000A5038AE0189FC001112480589E4FB9013E
:101470000E943D20E12FF0E0EE0FFF1FE455FD4FED
:10148000D183C0831F5F1093A503DF91CF911F917C
:10149000089590937F0180937E010895CF93DF9309
:1014A000CDE2D1E008C02196FC018491E0917E015B
:1014B000F0917F010995CE01FE012491222399F735
:1014C000DF91CF910895E091A303F091A4033097A9
:1014D00039F009951092A4031092A3030E944E0ABA
:1014E00008951F93CF93DF93E0917E01F0917F01E8
:1014F0008DE009950E944E0A1091A203C8EAD3E03C
:1015000007C0E0917E01F0917F018991099511500A
:101510001123B9F7DF91CF911F910895CF93DF93F6
:10152000882319F08130F9F40BC08091A803882337
:10153000D1F088EF93E068EA73E00E943D2013C089
:10154000C8EAD3E0CE0168EF73E00E943D20099025
:101550000020E9F72197C85AD340C093A203C09353
:10156000A7030E94710ADF91CF910895CF93DF9373
:10157000C2E3D1E008C02196FC018491E0917E0194
:10158000F0917F010995CE01FE012491222399F764
:10159000C8EAD3E005C0E0917E01F0917F01099592
:1015A0008991882311F08032B1F7E0917E01F091AA
:1015B0007F018AE30995E0917E01F0917F0180E24D
:1015C0000995CCE3D1E005C02196FC018491F90195
:1015D0000995CE01FE01449120917E0130917F0159
:1015E000442391F78DE0F9010995E0917E01F09196
:1015F0007F018AE00995DF91CF9108950F931F93A2
:1016000080E00E948E0A00E001C00F5FE02FF0E052
:10161000E855FC4F8081803211F08823B1F7002318
:1016200021F110E01CC02AE0129FC0011124805853
:101630009E4F68EA73E0402F50E00E9444200097DC
:1016400069F4E12FF0E0EE0FFF1FE455FD4F8081BC
:1016500091819093A4038093A30309C01F5F80919D
:10166000A503181700F30E94B60A0E944E0A1F91A4
:101670000F9108951F93182F8091A603823009F0CF
:101680003FC0123461F0133418F41134B1F505C0C1
:10169000133449F0143489F521C081E001C082E09F
:1016A0000E948E0A2AC08091A7039091A203E09124
:1016B0007E01F0917F018917F0F48F5F8093A7037B
:1016C0008BE10995E0917E01F0917F018BE5099511
:1016D000E0917E01F0917F0183E40EC08091A70329
:1016E000E0917E01F0917F01882329F08150809361
:1016F000A70388E001C087E009951092A603D9C02E
:10170000813021F41B3511F482E0D1C01092A60380
:10171000812F80528F3508F044C09091A7038091AB
:10172000A2039817B1F4E0917E01F0917F01812F1F
:1017300009958091A703E82FF0E0E855FC4F10834E
:101740008F5F8093A7038091A2038F5F8093A20392
:10175000B0C08F5F8093A20309C0E82FF0E0E85586
:10176000FC4FDF0111972C91208381509817A8F32B
:10177000E92FF0E0E855FC4F10839F5F9093A7039B
:101780000E94710A1091A70307C0E0917E01F091B9
:101790007F0188E009951F5F8091A2031817A8F3C5
:1017A00088C01A3011F01D3011F5E0917E01F091E2
:1017B0007F018DE00995E0917E01F0917F018AE043
:1017C00009958091A203E82FF0E0E855FC4F1082C4
:1017D0008F5F8093A2038091A7038F5F8093A703FD
:1017E0000E94FE0A1092A2031092A70362C01F3744
:1017F00019F0183009F058C08091A703882309F424
:101800004CC09091A2038917E9F4E0917E01F09118
:101810007F0188E00995E0917E01F0917F0180E2EF
:101820000995E0917E01F0917F0188E00995809112
:10183000A20381508093A2038091A70381508093DB
:10184000A70337C091509093A20381508093A703C0
:1018500007C0E82FF0E0E855FC4F218120838F5F1F
:101860008917B8F30E94710AE0917E01F0917F011F
:1018700080E209951091A70307C0E0917E01F091E5
:101880007F0188E009951F5F2091A20330E0812F3E
:1018900090E0281739078CF70CC0E0917E01F09199
:1018A0007F0187E0099505C01B3119F481E0809321
:1018B000A6031F91089520E001C02F5FE22FF0E002
:1018C000E855FC4F90819032C1F390E014C02F5F37
:1018D000E22FF0E0E855FC4F3081332321F0303225
:1018E000B1F701C02F5FE22FF0E0E855FC4F3081E7
:1018F0003032C1F39F5F981758F330E028553C4FC2
:10190000C9010895DF93CF9300D0CDB7DEB70E9411
:101910005B0CBE016F5F7F4F4AE050E00E94081FE2
:101920000F900F90CF91DF910895DF93CF9300D068
:10193000CDB7DEB70E945B0CBE016F5F7F4F40E109
:1019400050E00E94081F0F900F90CF91DF910895F3
:10195000882331F485B78C7F85BF85B7862B85BFFB
:101960000895882321F47093E9026093E8020895B2
:10197000882321F41092E9021092E802089580E091
:101980000E94B80C08951F920F920FB60F92112467
:101990002F933F934F935F936F937F938F939F9377
:1019A000AF93BF93EF93FF938091E8029091E90288
:1019B000009729F0E091E802F091E9020995FF9182
:1019C000EF91BF91AF919F918F917F916F915F91B7
:1019D0004F913F912F910F900FBE0F901F90189530
:1019E000EF92FF920F931F9381E00E94950C7B0171
:1019F0008C0182E00E94950CF70160831F910F918A
:101A0000FF90EF9008956F927F928F929F92AF9286
:101A1000BF92CF92DF92EF92FF920F931F93CF93DB
:101A2000DF9381E00E94950CA62EC72E82E00E94D3
:101A3000950C7B018C018C2D6A2CE3016E01D82E54
:101A4000E60199248824839404E511E09AE5C92EDF
:101A500091E0D92E81E5A82E81E0B82E4BC0888177
:101A6000992009F5ADB7BEB719970FB6F894BEBF68
:101A70000FBEADBFEDB7FEB7319611968C92D282F4
:101A8000C1823E0173821482C583168287831086C9
:101A90000E9407188DB79EB709960FB6F8949EBF9F
:101AA0000FBE8DBF15C000D000D00F92EDB7FEB7AE
:101AB0003196ADB7BEB711968C92128301838383A2
:101AC00014820E9407180F900F900F900F900F90A4
:101AD0009394B92DB83069F400D00F92EDB7FEB7EA
:101AE0008182B382A2820E9407180F900F900F90FC
:101AF00099242196EC16FD0608F0B1CF00D00F9284
:101B000081E0ADB7BEB711968C9311978EE491E04A
:101B100013969C938E9312970E9407180F900F9024
:101B20000F90DF91CF911F910F91FF90EF90DF9079
:101B3000CF90BF90AF909F908F907F906F900895BF
:101B40009F92AF92BF92CF92DF92EF92FF920F934C
:101B50001F9381E00E94950CFB01A080BB24CC2444
:101B6000DD248AE064E040E020E2860175010E9405
:101B7000641700D00F9299249394EDB7FEB7918229
:101B80008CE691E0938382830E9407180F900F9058
:101B90000F9080E164E040E020E20E94641700D0F2
:101BA0000F92EDB7FEB791828AE691E0938382832C
:101BB0000E9407180F900F900F9082E068E040E0BD
:101BC00020E30E94641700D00F92EDB7FEB7918218
:101BD00088E691E0938382830E940718EDB7FEB7F1
:101BE000918286E691E0938382830E9407180F908A
:101BF0000F900F901F910F91FF90EF90DF90CF907B
:101C0000BF90AF909F900895DF93CF930F92CDB781
:101C1000DEB781E00E94820C60934C0484EC91E07A
:101C200069830E9420176981662319F087EA91E091
:101C300002C088E891E00E9420170F90CF91DF91B9
:101C4000089589E397E00E94201782E197E00E94BF
:101C500020178CEE96E00E94201788EC96E00E94F8
:101C6000201782EA96E00E94201789E896E00E94F9
:101C7000201789E596E00E9420178CE296E00E94EA
:101C800020178AE096E00E9420178AED95E00E94D6
:101C9000201782EB95E00E9420178DE795E00E94C7
:101CA000201786E595E00E9420178DE295E00E94BE
:101CB000201788E095E00E9420178EED94E00E94A6
:101CC00020178CEB94E00E94201788E894E00E9493
:101CD000201784E594E00E94201780E394E00E949E
:101CE00020178EE094E00E94201782EF93E00E947C
:101CF00020170895FF920F931F93DF93CF93CDB7D3
:101D0000DEB764970FB6F894DEBF0FBECDBF81E09B
:101D10000E945B0C8C0182E00E94820CF62E83E014
:101D20000E945B0CBC01F80180818136A1F4FF2D7B
:101D3000F63070F48E010F5F1F4FC8010E943D20E6
:101D400064E18F2D869FB001112461547F4F15C02F
:101D500083E792E01DC08436C9F4EF2DE83098F493
:101D60008E010F5F1F4FC8010E943D2064E1FF2DCF
:101D7000F69FB0011124695C7E4FC80144E150E038
:101D80000E94702007C08DE592E002C089E292E0D7
:101D90000E94201764960FB6F894DEBF0FBECDBF29
:101DA000CF91DF911F910F91FF9008958F929F9295
:101DB000AF92BF92DF92EF92FF920F931F93CF9358
:101DC000DF9381E00E94820C862E82E00E94820CCA
:101DD000162F80EA92E00E9420170E949B1ADC01D5
:101DE000CB012DB73EB7275030400FB6F8943EBF19
:101DF0000FBE2DBFEDB7FEB73196DD24D394CDB71E
:101E0000DEB7D9822DE932E0328321838383948344
:101E1000A583B6830E940718EDB7FEB737960FB6B5
:101E2000F894FEBF0FBEEDBF80E00E94490900D0CC
:101E300000D00F92EDB7FEB73196ADB7BEB7119691
:101E4000DC9229E932E032832183948383830E94E8
:101E500007180F900F900F900F900F9080E00E9446
:101E6000490900D000D00F92EDB7FEB73196CDB73B
:101E7000DEB7D98225E932E03283218394838383DC
:101E80000E9407180F900F900F900F900F908FE8FF
:101E900092E00E94201781229924AA24BB248AE080
:101EA00064E040E020E2850174010E94641700D0E4
:101EB0000F92EDB7FEB7D1828DE892E093838283D3
:101EC0000E9407180F900F900F9080E164E040E0AF
:101ED00020E20E94641700D00F92ADB7BEB71196F2
:101EE000DC9211978BE892E013969C938E93129755
:101EF0000E9407180F900F900F9082E068E040E07A
:101F000020E30E94641700D00F92CDB7DEB7D982CC
:101F100089E892E09B838A830E9407180F900F90B4
:101F20000F90DF91CF911F910F91FF90EF90DF9075
:101F3000BF90AF909F908F900895FF920F931F9343
:101F4000DF93CF93CDB7DEB729970FB6F894DEBFF6
:101F50000FBECDBF81E00E94820CF62E8E010F5F76
:101F60001F4F22E0822F29870E94820CF801619383
:101F70008F0129852F5F2A30A9F78981882321F0D5
:101F8000CE0101960E94A4068F2D0E94830684EA4A
:101F900092E00E94201729960FB6F894DEBF0FBE7C
:101FA000CDBFCF91DF911F910F91FF900895DF92E8
:101FB000EF92FF920F931F93DF93CF9300D000D047
:101FC000CDB7DEB781E00E94820C862F91E090931E
:101FD0004A04662309F044C0DD2401E0802F0E94FA
:101FE00084088111D3940F5F0531C1F7EE24FF24DB
:101FF000F3948E010F5F1F4F8F2D0E94840888235A
:1020000051F1E39480914C04813021F48EEE92E002
:102010000E9420170E94790580914C04813019F4A8
:102020008BEE92E002C089EE92E00E942017C80178
:102030000E94430780914C04813049F487EE92E07E
:102040000E942017ED1438F485EE92E002C081EE74
:1020500092E00E942017F3948F2D853169F60DC010
:102060006F3F19F40E94590804C00E948408882315
:1020700021F0CE0101960E94430710924A040F906E
:102080000F900F900F90CF91DF911F910F91FF90C4
:10209000EF90DF90089581E00E94820C862F0E94CD
:1020A00072040895FF920F931F93CF93DF9381E003
:1020B0000E945B0CEC0182E00E94820CF62E83E011
:1020C0000E945B0C8C018881843471F0853428F483
:1020D0008234D9F0833489F529C0833639F18436C6
:1020E00019F0823651F511C08FE893E00E94201755
:1020F00049B18AB121E030E00F2C02C0220F331F1A
:102100000A94E2F7822B8AB919C087E893E00E940B
:10211000201743B184B121E030E00F2C02C0220F20
:10212000331F0A94E2F7822B84B908C08FE793E04B
:102130000E94201746B187B101C043B1D8018C91EC
:10214000803371F1813320F4813209F074C064C0AE
:10215000813321F08F3309F06EC044C000D000D02D
:102160000F92EDB7FEB7319681E0ADB7BEB71196CD
:102170008C9384E793E092838183F38214820E949C
:1021800007182BB181E090E002C0880F991FFA94E4
:10219000E2F7282B2BB929B18095822389B95EC03B
:1021A00000D000D00F92EDB7FEB7319681E0ADB709
:1021B000BEB711968C9389E693E092838183F38274
:1021C00014820E9407182BB181E090E002C0880FB2
:1021D000991FFA94E2F7809528232BB999B1982397
:1021E00099B93CC000D000D00F92EDB7FEB7319640
:1021F00081E0ADB7BEB711968C9311972EE533E011
:102200003283218381E090E002C0880F991FFA9405
:10221000E2F7842383831FC087E593E00E942017A1
:1022200025B181E090E002C0880F991FFA94E2F78F
:10223000282725B918C000D000D00F92EDB7FEB7FF
:10224000319681E0ADB7BEB711968C9322E533E0AD
:1022500032832183438314820E9407180F900F90CA
:102260000F900F900F900E943017DF91CF911F9128
:102270000F91FF900895EF92FF920F931F93DF93BA
:10228000CF93CDB7DEB765970FB6F894DEBF0FBE1C
:10229000CDBF81E00E94820C82E06D8B0E945B0CBE
:1022A0007C016D89662391F08AEA90E00E947A2091
:1022B0008E010F5F1F4FC801B7010E943D20C8016A
:1022C0006BEA70E044E150E00E94702065960FB622
:1022D000F894DEBF0FBECDBFCF91DF911F910F915C
:1022E000FF90EF90089582EC93E00E9420170895EC
:1022F000FF920F931F93DF93CF93CDB7DEB7649711
:102300000FB6F894DEBF0FBECDBF8E010F5F1F4F1B
:10231000C8016BEA70E044E150E00E94522000D016
:102320000F92FF24F394ADB7BEB71196FC921197AC
:1023300087EB93E013969C938E9312970E94071855
:102340000F900F900F90C8010E94E5168AEA90E066
:102350000E94622000D000D00F92EDB7FEB73196F8
:10236000ADB7BEB71196FC9227EA33E032832183E2
:10237000838314820E9407180F900F90EDB7FEB769
:10238000F1828AE993E0938382830E9407180F9079
:102390000F900F900E94731100D00F92ADB7BEB78F
:1023A0001196FC92119787E993E013969C938E9374
:1023B00012970E9407180F900F900F9064960FB617
:1023C000F894DEBF0FBECDBFCF91DF911F910F916B
:1023D000FF90089523B100D000D00F92EDB7FEB763
:1023E000319681E0ADB7BEB711968C9380E493E04F
:1023F00092838183238314820E9407180F900F9089
:102400000F900F900F90089529B100D000D00F9237
:10241000EDB7FEB7319681E0ADB7BEB711968C939C
:102420008EE293E092838183238314820E940718B3
:102430000F900F900F900F900F90089583E293E00C
:102440000E94201717B818B80E94160987E00E944A
:10245000040981E00E940B090895AF92BF92CF92C8
:10246000DF92EF92FF920F931F93DF93CF93CDB73D
:10247000DEB764970FB6F894DEBF0FBECDBF17B8B6
:1024800018B80E94160987E00E94040981E00E94A2
:102490000B090FEB10E0BB247E010894E11CF11C3A
:1024A000AA24A39426E1C22E23E0D22EC701B801AC
:1024B00044E150E00E94522089818823C9F1809133
:1024C0004C04813021F480E293E00E942017C70180
:1024D0000E94E51680914C04813019F48DE193E05F
:1024E00002C089E193E00E9420178B2D0E944909C8
:1024F00000D000D00F92EDB7FEB73196ADB7BEB7A2
:102500001196AC92D282C182948383830E94071871
:102510000F900F900F900F900F9080914C0481308E
:1025200029F483E193E00E94201702C00E94301733
:10253000B3940C5E1F4FBB2DB63009F0B7CF0E948D
:10254000FB0864960FB6F894DEBF0FBECDBFCF91E7
:10255000DF911F910F91FF90EF90DF90CF90BF9090
:10256000AF9008950E945908882379F400D00F9203
:1025700081E0EDB7FEB7818385ED92E0938382839E
:102580000E9407180F900F900F900E9479050895F0
:10259000DF92EF92FF920F931F93CF93DF9381E02F
:1025A0000E94820C8DEC92E00E942017C0E0D0E0E7
:1025B000DD24D39432ECE32E32E0F32E0CEB12E068
:1025C0009E012F5F822F0E948408882329F100D06A
:1025D00000D00F92EDB7FEB73196ADB7BEB71196EA
:1025E000DC92F282E182CE010196948383830E9481
:1025F00007180F900F900F900F900F900E94790581
:1026000000D00F92EDB7FEB7D182138302830E94F0
:1026100007180F900F900F902196C331D10581F6C6
:1026200084EB92E00E942017DF91CF911F910F91D0
:10263000FF90EF90DF9008956F927F928F929F921C
:10264000BF92CF92DF92EF92FF920F931F93DF938F
:10265000CF93CDB7DEB764970FB6F894DEBF0FBE49
:10266000CDBF8BE192E00E942017FFEBEF2EF0E050
:10267000FF2E00E010E06E010894C11CD11CBB24A9
:10268000B394E6E18E2EE2E09E2E7FE0672E72E0AC
:10269000772EC601B70144E150E00E9452208981A3
:1026A000882369F100D000D00F92EDB7FEB73196C4
:1026B000ADB7BEB71196BC92928281820383148318
:1026C0000E9407180F900F900F900F900F90C60167
:1026D0000E94E51600D000D00F92EDB7FEB73196FC
:1026E000ADB7BEB71196BC92728261820383148328
:1026F0000E9407180F900F900F900F900F900F5F90
:102700001F4F84E190E0E80EF91E0630110509F62E
:1027100081E092E00E94201783EF91E00E94201751
:1027200067E3E62E61E0F62E00E010E06E0108940B
:10273000C11CD11CBB24B3945EEE852E51E0952EB6
:1027400047EE642E41E0742EC601B70144E150E02B
:102750000E9452208981882369F100D000D00F9215
:10276000EDB7FEB73196ADB7BEB71196BC92928267
:102770008182038314830E9407180F900F900F909B
:102780000F900F90C6010E94E51600D000D00F9266
:10279000EDB7FEB73196ADB7BEB71196BC92728257
:1027A0006182038314830E9407180F900F900F908B
:1027B0000F900F900F5F1F4F84E190E0E80EF91E1D
:1027C0000830110509F689ED91E00E942017649602
:1027D0000FB6F894DEBF0FBECDBFCF91DF911F9132
:1027E0000F91FF90EF90DF90CF90BF909F908F90D0
:1027F0007F906F90089580914C04813019F480E8A7
:1028000091E002C08EE791E00E9420170895809128
:102810004C04813019F485E791E002C083E791E030
:102820000E94201708951F930E94FB138BE797E0E7
:102830000E9420170E94781189E797E00E942017D4
:1028400080E797E00E9420170E94EA1100D00F92C3
:1028500011E0EDB7FEB711838EE697E09383828394
:102860000E9407180F900F900F9085E697E00E9446
:1028700020170E94041200D00F92EDB7FEB711830B
:1028800083E697E0938382830E9407180F900F904E
:102890000F9083E597E00E9420170E94D70F00D089
:1028A0000F92EDB7FEB7118380E597E093838283A3
:1028B0000E9407180F900F900F900E9407140E941B
:1028C00030171F9108951F9319B10E949B1A6D3301
:1028D0007105810591059CF11470809149041817C8
:1028E000C1F000D000D00F92EDB7FEB7319681E075
:1028F000ADB7BEB711968C9381EF92E0928381833E
:10290000138314820E9407180F900F900F900F905E
:102910000F901093490483B190E2892783B9809185
:102920004A04882351F40E947B040E94C9068091C6
:102930004B04882311F00E9413140E94921A1F91D5
:1029400008951F938FE091E00E94E51681E00E94B8
:10295000820C162F82E00E94820C81E58CBD81E002
:102960008DBD2A9880E01EBD0DB407FEFDCF9AE014
:102970009A95F1F700C08F5F6817A8F72A9A88E147
:1029800091E00E94E5161F9108954F925F926F9219
:102990007F928F929F92AF92BF92CF92DF92EF92EF
:1029A000FF920F931F93DF93CF93CDB7DEB764975A
:1029B0000FB6F894DEBF0FBECDBF81E00E94820C3F
:1029C00081E291E00E94E51617E3C12E11E0D12EBD
:1029D00000E010E05E010894A11CB11CB1E08B2E58
:1029E000912C55245394AEE66A2EA1E07A2EC501AF
:1029F000B60144E150E00E94522089818823A1F170
:102A000049B07401002E02C0EE0CFF1C0A94E2F7DC
:102A100089E291E00E94E516C5010E94E51600D00A
:102A200000D00F92EDB7FEB73196ADB7BEB7119695
:102A30005C92119772826182842D90E08E219F2199
:102A400021E030E08E159F0511F020E030E0348366
:102A500023830E9407180F900F900F900F900F90F4
:102A600081E391E00E94E5160F5F1F4F84E190E043
:102A7000C80ED91E0830110509F0B9CF87E391E0DF
:102A80000E94E51664960FB6F894DEBF0FBECDBF68
:102A9000CF91DF911F910F91FF90EF90DF90CF903A
:102AA000BF90AF909F908F907F906F905F904F906E
:102AB0000895DF92EF92FF920F931F93DF93CF93CE
:102AC0000F92CDB7DEB78FEF809348048E010F5F72
:102AD0001F4FDD24D3948CE9E82E87E0F82E9EC0AA
:102AE00089818D3409F45AC08E34A0F48434E1F124
:102AF000853440F4823471F1833478F5813409F0FF
:102B000083C021C08934C9F18C34D1F1883409F0F3
:102B10007BC030C0833509F45FC0843550F4803504
:102B200009F464C0823509F454C08E3409F06CC0D5
:102B30002AC0883509F461C08A3509F45BC0843540
:102B400009F062C04CC00E94FB130E942D120E942B
:102B500007140EC00E94EA114BC00E94551E81E06E
:102B600061E00E948E1E44C00E9404120E94C5149F
:102B70008AE04AC00E94210E3BC00E94731138C0F7
:102B80000E94C81235C08FEA97E00E9420170E9469
:102B900078118CEA97E00E94201738C080914B048E
:102BA000809580934B0400D000D00F92EDB7FEB714
:102BB0003196ADB7BEB71196DC92F282E182838383
:102BC00014820E9407180F900F900F900F900F9093
:102BD0001DC00E94B2120CC00E94540509C00E9480
:102BE000FB130E94D70F0E94071402C00E941C13FF
:102BF0008DE00AC00E94131409C088E897E00E9483
:102C000020170E94921A02C00E943A0BC8010E942B
:102C1000891D882309F064CF0E94630A80914804CB
:102C20008823A1F70F90CF91DF911F910F91FF9013
:102C3000EF90DF9008950F931F93CF93DF930E943F
:102C4000601D60E072EC81E090E00E94461DC0E8EB
:102C5000DDE1CE010E94CE160E941D0ACE010E9427
:102C6000490A0E94501E0E94551E8CE284B98CE0D5
:102C70008BB989B18470809349042A9A0E94811982
:102C800085E00E947C1980E063E674E10E94E71908
:102C90000E941E1281E080934C0410924A0410920C
:102CA0004B040E9426040E94C9068FE391E061E272
:102CB0007EE00E942A0A84E491E06BE470E10E94C5
:102CC0002A0A87E491E06BE371E10E942A0A8BE40F
:102CD00091E062E570E10E942A0A8FE491E06DE9DB
:102CE0007FE00E942A0AC4E5D1E006ED1EE0CE0195
:102CF000B8010E942A0A89E591E067ED7FE00E9411
:102D00002A0A8EE591E06AE77EE00E942A0A84E6BC
:102D100091E06EEB78E10E942A0A8AE691E064E095
:102D20007EE00E942A0A8FE691E060EF7CE00E943C
:102D30002A0A84E791E060EA7DE00E942A0A89E796
:102D400091E063E07DE00E942A0ACE01B8010E9472
:102D50002A0A0E9473110E94A6188DE00E943A0B65
:102D60000E94591580E090E0DF91CF911F910F9163
:102D70000895EF92FF920F931F9381E00E94820CBF
:102D80007B018C0182E00E94820CC70170E00E94EE
:102D9000BE181F910F91FF90EF9008959093EB0252
:102DA0008093EA0208951F93182F8A3031F4E0913E
:102DB000EA02F091EB028DE00995E091EA02F091D0
:102DC000EB02812F09951F910895CF93DF93009710
:102DD00039F0EC0102C00E94D31689918823D9F7FB
:102DE000DF91CF910895EF92FF920F931F93CF93AE
:102DF000DF937A010097E9F0FC0180E090E0EF01B9
:102E00008617970718F000E010E010C02191EF013D
:102E100001962223A1F7F7CF8881882311F021960C
:102E200001C080E20E94D3160F5F1F4F0E151F05D1
:102E300098F3DF91CF911F910F91FF90EF9008953C
:102E4000CF93DF93EC01009719F407C00E94D316CB
:102E5000FE01219684918823C9F7DF91CF910895CF
:102E60008AE00E94D3160895E82FF0E0EF70F0702A
:102E7000E454F84F84910E94D31608951F93182F9D
:102E800082958F700E943417812F0E9434171F91F2
:102E900008951F93182F892F0E943E17812F0E949B
:102EA0003E171F910895EF92FF920F931F937B019E
:102EB0008C01C8010E944917C7010E9449171F9140
:102EC0000F91FF90EF9008952F923F924F925F9253
:102ED0007F928F929F92AF92BF92CF92DF92EF92AA
:102EE000FF920F931F93DF93CF93CDB7DEB7A297D7
:102EF0000FB6F894DEBF0FBECDBF282E862E942EBF
:102F0000722E57016801442351F017FF08C066274D
:102F10007727CB016E197F09800B910B02C0C60188
:102F2000B50118A2332444245524A20191010E9422
:102F3000E61E6F7070706454784FFB0164916F8F60
:102F4000B901CA018E01025E1F4F382D315021E0B8
:102F5000992009F420E0321BA801431B51095AA310
:102F600049A318C0611571058105910579F0A20189
:102F700091010E94E61E6F7070706454784FFB01DF
:102F80006491F8016083B901CA0102C0F80170823E
:102F90000150104078010894E11CF11C29A13AA1CC
:102FA00002171307F9F69920C1F0D7FE03C0780184
:102FB0008DE20AC0A114B104C104D10419F0780152
:102FC0008BE202C0780180E2F701808306C0F7013E
:102FD00081917F010E94D3168A948820C1F7A2961E
:102FE0000FB6F894DEBF0FBECDBFCF91DF911F911A
:102FF0000F91FF90EF90DF90CF90BF90AF909F9098
:103000008F907F905F904F903F902F9008954F92B8
:103010005F926F927F928F929F92AF92BF92CF9268
:10302000DF92EF92FF920F931F93DF93CF930F9254
:10303000CDB7DEB75C88ED88FE8857E1C52ED12C70
:10304000CC0EDD1E4AE0642E712C1AC08823A1F438
:1030500080E090E00F90CF91DF911F910F91FF9052
:10306000EF90DF90CF90BF90AF909F908F907F9028
:103070006F905F904F9008950E94D316560165019E
:1030800097012F5F3F4F552021F0F701790184917F
:1030900003C0F701808179018532C1F62F5F3F4F70
:1030A000552021F0F7017901849103C0F701808157
:1030B0007901843629F0883781F08336E9F606C035
:1030C0003AE0832E912C00E117E20CC0F6018081DA
:1030D00022E030E0C20ED31ECFCF20E1822E912C11
:1030E00000E010E192E0A92EB12CAC0CBD1CF60161
:1030F000C080D1808436A9F4D7FE10C0D094C1948A
:10310000D108D3948DE20E94D31608C0C801B30140
:103110000E94D21E8B016230710518F0C016D106D4
:10312000A8F3C601B8010E94D21E482E862F9983AB
:103130000E943417C42C9981D92EC801B4010E9471
:10314000D21E8B016115710561F799CF86E084B9B4
:1031500087E085B980E593EC0E94DE1A82E00E9448
:1031600093190E94FB1A0E94041B88EB9BE00E94AB
:103170002C1B88EB9BE00E94311B08958854944FD0
:1031800021E0843F92072CF027E28131920724F45A
:1031900005C084EF91E002C080E197E261157105FE
:1031A00001F527C020918A0030918B008217930788
:1031B00038F420918A0030918B002150304006C0B5
:1031C00020918A0030918B002F5F3F4F30938B000E
:1031D00020938A0020918A0030918B0028173907AC
:1031E00061F020918A0030918B0028173907D1F6C1
:1031F000089590938B0080938A00089586E084B9A7
:1032000087E085B989E09DE30E94DE1A85E00E948F
:1032100093190E94FB1A80E090E00E942C1B0895F5
:10322000009731F02DE38930920710F089E09DE39B
:103230000E942C1B089588E284B9229A3C9A249813
:1032400086ED8CBD08952A9808952A9A08950E94C3
:1032500025198FE99FE00197F1F700C000000E9457
:10326000231908958EBD0DB407FEFDCF08950DB44A
:1032700007FEFDCF8EB508950895813039F0813075
:1032800028F1823061F0833009F512C080916E0020
:10329000877F80936E0080916E008D7F11C080913A
:1032A0006E00877F80936E0080916E00826016C0F2
:1032B00080916E00877F80936E0080916E008260A7
:1032C00080936E0080916E0081600DC080916E00D1
:1032D000877F80936E0080916E008D7F80936E005B
:1032E00080916E008E7F80936E0080916E00826070
:1032F00080936E00A99A089595B5987F982B95BDF7
:10330000089582E00E947C1916BCEEE6F0E0808110
:103310008160808310924D0410924E0410924F04ED
:10332000109250040895E1E8F0E09081987F982B86
:103330009083089581E00E94931910928500109265
:103340008400EFE6F0E08081816080830895E1EB06
:10335000F0E09081987F982B9083089584E00E94FC
:10336000A7191092B200E0E7F0E0808181608083CD
:10337000109255041092560410925704109258045B
:103380000895E5B5F0E0E770F070EE0FFF1FE3532E
:10339000F84F25913491C9010895E0918100F0E042
:1033A000E770F070EE0FFF1FE353F84F2591349153
:1033B000C9010895E091B100F0E0E770F070EE0F00
:1033C000FF1FE752F84F25913491C90108958A30C3
:1033D00040F4E82FF0E0EE0FFF1FE451FD4F718342
:1033E000608308958A3040F4E82FF0E0EE0FFF1F6D
:1033F000E451FD4F1182108208951F9310E0812F38
:103400000E94F2191F5F1A30D1F70E9481190E94A1
:103410009A190E94AE1978941F910895DF92EF9245
:10342000FF920F931F93CF93DF93EC01D6B41092CA
:1034300051041092520410925304109254040E94AA
:10344000C1199C0140E050E060E074E284EF90E03C
:103450000E94E61E79018A01293B8DE8380786E043
:10346000480780E0580790F487E2C131D80770F42C
:103470009E0140E050E0C801B7010E94B31E28EE53
:1034800033E040E050E00E94E61E27C0C801B701CB
:1034900028EE33E040E050E00E94E61E79018A0108
:1034A0009E0140E050E0C801B7010E94B31E9B019D
:1034B000AC0113C08091510490915204A091530427
:1034C000B091540483B7817F83BF83B7816083BF8A
:1034D000889583B78E7F83BF04C02D0D311D411D9C
:1034E000511DE0905104F09052040091530410914A
:1034F000540486B590E0A0E0B0E0102F0F2DFE2C14
:10350000EE248E299F29A02BB12B82179307A407A5
:10351000B50780F2DF91CF911F910F91FF90EF904F
:10352000DF90089510924D0410924E0410924F04B3
:1035300010925004089520914D0430914E04409112
:103540004F0450915004B901CA01089510925504D6
:103550001092560410925704109258040895209126
:103560005504309156044091570450915804B901C4
:10357000CA010895893049F4809180008260809367
:103580008000809180008E7F0EC08A3021F480916F
:103590008000826003C0809180008D7F80938000D6
:1035A0008091800081608093800010928900109249
:1035B000880010928B0010928A000895E0E8F0E0F5
:1035C00020812E7F2083208122602083E1E8F0E0AB
:1035D00020812860208320812061208390938700B0
:1035E00080938600109289001092880010928B00C0
:1035F00010928A000895E0E8F0E08081806880837E
:1036000080818F7B80830895E0E8F0E08081806294
:10361000808380818F7E80830895E0E8F0E0808160
:103620008F77808380818F7B80830895E0E8F0E04E
:1036300080818F7D808380818F7E80830895E0E804
:10364000F0E080818D7F808380818E7F80830E94E7
:103650000D1B0E94161B089590938900809388008B
:10366000089590938B0080938A000895E0EBF0E03A
:1036700080818068808380818F7B8083808181606E
:103680008083808182608083E1EBF0E08081877FAE
:1036900080830895E0EBF0E0808180628083808108
:1036A0008F7E80830895E0EBF0E080818F778083C8
:1036B00080818F7B808308958093B30008958093E9
:1036C000B40008951F920F920FB60F9211242F93FA
:1036D0003F934F935F936F937F938F939F93AF939A
:1036E000BF93EF93FF9380914D0490914E04A0916E
:1036F0004F04B09150040196A11DB11D80934D045B
:1037000090934E04A0934F04B093500480915104C1
:1037100090915204A0915304B09154040196A11DBC
:10372000B11D8093510490935204A0935304B0931D
:1037300054048091EC029091ED02009729F0E09101
:10374000EC02F091ED020995FF91EF91BF91AF91DD
:103750009F918F917F916F915F914F913F912F91A9
:103760000F900FBE0F901F9018951F920F920FB6DB
:103770000F9211242F933F934F935F936F937F93F7
:103780008F939F93AF93BF93EF93FF938091F20238
:103790009091F302009729F0E091F202F091F30288
:1037A0000995FF91EF91BF91AF919F918F917F917B
:1037B0006F915F914F913F912F910F900FBE0F909E
:1037C0001F9018951F920F920FB60F9211242F93EE
:1037D0003F934F935F936F937F938F939F93AF9399
:1037E000BF93EF93FF938091550490915604A0915D
:1037F0005704B09158040196A11DB11D8093550442
:1038000090935604A0935704B09358048091FA0201
:103810009091FB02009729F0E091FA02F091FB02EF
:103820000995FF91EF91BF91AF919F918F917F91FA
:103830006F915F914F913F912F910F900FBE0F901D
:103840001F9018951F920F920FB60F9211242F936D
:103850003F934F935F936F937F938F939F93AF9318
:10386000BF93EF93FF938091EE029091EF02009748
:1038700029F0E091EE02F091EF020995FF91EF91AE
:10388000BF91AF919F918F917F916F915F914F9178
:103890003F912F910F900FBE0F901F9018951F9280
:1038A0000F920FB60F9211242F933F934F935F9374
:1038B0006F937F938F939F93AF93BF93EF93FF93F8
:1038C0008091F0029091F102009729F0E091F002CE
:1038D000F091F1020995FF91EF91BF91AF919F9106
:1038E0008F917F916F915F914F913F912F910F90A9
:1038F0000FBE0F901F9018951F920F920FB60F9248
:1039000011242F933F934F935F936F937F938F93E4
:103910009F93AF93BF93EF93FF938091F4029091A5
:10392000F502009729F0E091F402F091F502099573
:10393000FF91EF91BF91AF919F918F917F916F9187
:103940005F914F913F912F910F900FBE0F901F905D
:1039500018951F920F920FB60F9211242F933F9339
:103960004F935F936F937F938F939F93AF93BF9387
:10397000EF93FF938091F6029091F702009729F060
:10398000E091F602F091F7020995FF91EF91BF9156
:10399000AF919F918F917F916F915F914F913F91E7
:1039A0002F910F900FBE0F901F9018951F920F929E
:1039B0000FB60F9211242F933F934F935F936F9302
:1039C0007F938F939F93AF93BF93EF93FF938091D8
:1039D000F8029091F902009729F0E091F802F09135
:1039E000F9020995FF91EF91BF91AF919F918F914E
:1039F0007F916F915F914F913F912F910F900FBEEB
:103A00000F901F9018951F920F920FB60F921124CE
:103A10002F933F934F935F936F937F938F939F93D6
:103A2000AF93BF93EF93FF938091FC029091FD02BF
:103A3000009729F0E091FC02F091FD020995FF91B9
:103A4000EF91BF91AF919F918F917F916F915F9116
:103A50004F913F912F910F900FBE0F901F9018958F
:103A60008AE594E062E073E040E450E00E9481095E
:103A700083E694E062E473E040E450E00E94810950
:103A80000895909301038093000308959B01AC0176
:103A900082E08093C00088E98093C10083E0220F18
:103AA000331F441F551F8A95D1F760E074E284EFFD
:103AB00090E00E94E61E21502093C400789408955F
:103AC0000E94301D109201031092000388ED809334
:103AD000C10060E072EC81E090E00E94461D8FEF33
:103AE000809359041092620410926C0410926B043B
:103AF000789408958AE594E0089583E694E0089523
:103B00009091C00095FFFCCF8093C600109259049D
:103B10000895CF93DF93EC0180915C0490915D0454
:103B2000009769F080915E0490915F04009739F0EE
:103B30008AE594E00E948E0988838FEF01C080E0BF
:103B4000DF91CF910895DF93CF930F92CDB7DEB77A
:103B5000CE0101960E94891D882319F0298130E049
:103B600002C02FEF3FEFC9010F90CF91DF91089571
:103B700010925F0410925E04089580915E0490910B
:103B80005F04009711F48FEF089580E00895682F87
:103B900083E694E00E94E60908958FEF8093620423
:103BA00083E694E00E948E090E94801D08951F9272
:103BB0000F920FB60F9211242F933F934F935F9361
:103BC0006F937F938F939F93AF93BF93EF93FF93E5
:103BD00080916204882379F0809167049091680451
:103BE000009739F083E694E00E948E098093C60026
:103BF00005C0109262048FEF80935904FF91EF91FA
:103C0000BF91AF919F918F917F916F915F914F91F4
:103C10003F912F910F900FBE0F901F9018951F92FC
:103C20000F920FB60F9211242F933F934F935F93F0
:103C30006F937F938F939F93AF93BF93EF93FF9374
:103C40006091C600209100033091010321153105D8
:103C500039F0E0910003F0910103862F09950FC020
:103C60008AE594E00E94E609882349F480916B0478
:103C700090916C04019690936C0480936B04FF9177
:103C8000EF91BF91AF919F918F917F916F915F91D4
:103C90004F913F912F910F900FBE0F901F9018954D
:103CA0008BE098E00E942017089586E098E00E943B
:103CB0002017089500D000D00F92EDB7FEB73196CF
:103CC00091E0ADB7BEB711969C9320E038E0328307
:103CD0002183838314820E9407180F900F900F9006
:103CE0000F900F900895882349F000D00F9281E043
:103CF000EDB7FEB7818389EF97E008C000D00F923F
:103D000081E0EDB7FEB7818382EF97E093838283F2
:103D10000E9407180F900F900F9008952DB73EB78F
:103D2000275030400FB6F8943EBF0FBE2DBFEDB701
:103D3000FEB7319691E0ADB7BEB711969C9329EED0
:103D400037E03283218383831482658316820E9445
:103D500007182DB73EB7295F3F4F0FB6F8943EBF07
:103D60000FBE2DBF0895629FD001739FF001829F07
:103D7000E00DF11D649FE00DF11D929FF00D839FFA
:103D8000F00D749FF00D659FF00D9927729FB00D97
:103D9000E11DF91F639FB00DE11DF91FBD01CF01AA
:103DA00011240895AA1BBB1B51E107C0AA1FBB1F0A
:103DB000A617B70710F0A61BB70B881F991F5A95B7
:103DC000A9F780959095BC01CD010895A1E21A2E26
:103DD000AA1BBB1BFD010DC0AA1FBB1FEE1FFF1FAF
:103DE000A217B307E407F50720F0A21BB30BE40BFF
:103DF000F50B661F771F881F991F1A9469F7609546
:103E00007095809590959B01AC01BD01CF010895FF
:103E10002F923F924F925F927F928F929F92AF929A
:103E2000BF92CF92DF92EF92FF920F931F93CF93A7
:103E3000DF934B01EA016115710519F0FB018083E5
:103E40009183209739F09E01225030402332310572
:103E500008F0F4C0A82EB92EF50111915F017F0181
:103E6000812F90E00E9435200097B1F71D3229F490
:103E7000F50111917F0101E006C01B3219F4F50133
:103E800011917F0100E0209719F0C031D105B9F4FC
:103E9000103381F4F7018081883711F0883551F4AF
:103EA000F701118182E090E0E80EF91E0260C0E1A6
:103EB000D0E005C0209719F41033C1F422C0C830F7
:103EC000D105F9F0C930D10524F4C230D10509F586
:103ED00007C0CA30D10551F0C031D105D1F427C097
:103EE000A12CB12CC12CF0E4DF2E26C0CAE0D0E01A
:103EF000ECECAE2EECECBE2EECECCE2EECE0DE2E9E
:103F00001BC0C8E0D0E0A12CB12CC12C70E1D72E91
:103F100013C09E01442737FD4095542F60E070E0A8
:103F200080E090E80E94E61E59016A0105C0A12CBC
:103F3000B12CC12C68E0D62E40E060E070E0CB01EF
:103F40001E01442437FC4094542C50ED752E710E04
:103F5000E72DEA3070F0212F21542A3118F439EC82
:103F6000732E06C0212F21562A3130F529EA722EF0
:103F7000710E272D30E02C173D07F4F447FD18C0D3
:103F8000A616B706C806D90680F0A20191010E94C4
:103F9000B31E670D711D811D911D6130F0E07F071B
:103FA000F0E08F07F0E89F0710F04FEF01C041E00D
:103FB000F70111917F01C9CF8114910491F044233D
:103FC00039F00894E108F108F401F182E08209C0B7
:103FD00001FF1BC0970122503040F4013183208340
:103FE00014C047FF12C000FF05C060E070E080E031
:103FF00090E804C06FEF7FEF8FEF9FE722E230E0A1
:1040000030936E0420936D0416C000FF08C0909595
:104010008095709561957F4F8F4F9F4F0CC097FF94
:104020000AC082E290E090936E0480936D046FEF7B
:104030007FEF8FEF9FE79B01AC0103C020E030E0F2
:10404000A901B901CA01DF91CF911F910F91FF9092
:10405000EF90DF90CF90BF90AF909F908F907F9028
:104060005F904F903F902F900895911156C08032ED
:1040700019F089508550D0F70895FB01DC010190BB
:104080000D920020E1F70895FB01DC014150504002
:1040900030F08D910190801919F40020B9F7881B38
:1040A000990B0895DC01CB01FC01F999FECF06C004
:1040B000F2BDE1BDF89A319600B40D9241505040E6
:1040C000B8F70895F999FECF92BD81BDF89A992766
:1040D00080B50895A8E1B0E042E050E00C9454208F
:1040E000DC01CB0103C02D910E947B204150504048
:1040F000D0F70895262FF999FECF1FBA92BD81BD42
:1041000020BD0FB6F894FA9AF99A0FBE0196089559
:104110000E947A20272F0C947B20992788270895C6
:04412000F894FFCF41
:104124003C535041443E003C2F535041443E000A0E
:104134003C544553543E0A003C2F544553543E0AC4
:10414400000A3C44494F3E0A003C4420736E3D2221
:10415400003C2F443E0A003C2F44494F3E0A00686D
:10416400656C70006370006465760070696E00733E
:1041740061766500746573740074656D70006C61BC
:1041840062656C00736572766F006D6F64650070B4
:0E4194006F6B65007065656B0064756D700083
:00000001FF
